:400000000080002011000000550200005502000080B500AF024A034B1B68136000F01EF9BC760040FA46004010B5054C237833B9044B13B10448AFF300800123237010BD52
:400040003081FF1F000000007C1F0000084B10B51BB108480849AFF300800848036803B910BD074B002BFBD0BDE81040184700BF000000007C1F00003481FF1F0881FF1FBB
:400080000000000080B5A0B000AF62B600F0FCFF01F0F8FC00F0C8FB01F09CFA07F11403182001211A4601F0C9FA002387F87B30002387F87A30002387F87930002387F8E7
:4000C000783000F0F7FF01F0F3FC614800F046FC00F008FC034687F8773097F87730582B21D0582B0BDC432B15D0432B02DC002B21D021E0452B1AD0532B10D01CE0652B40
:4001000015D0652B02DC632B05D015E0732B06D0782B08D010E0012387F87A300CE0012387F87B3008E0002387F87B3004E0012387F8793000E000BF012000F0C1FF034690
:40014000002B00F083800023FB670023FB6734E0FB6F9BB2184600F0CBFF0346A7F87430B7F97430184600F0E1FF0246FB6F9B0007F180010B4443F83C2CFB6F9B0007F1B1
:400180008002134453F83C3CD9B207F13802FB6F13440A461A70FB6F9B0007F18002134453F83C3C1B12D9B207F12C02FB6F13440A461A70FB6F0133FB67FB6F0A2BC7DDF6
:4001C00000BF012001F07AFC0346002BF9D0002001F08CFC0346A7F87430B7F97430184601F0A2FC03463B673B6FDBB287F843303B6F1B12DBB287F8373001F0FBF9034689
:4002000003F01003002B21D10023FB671BE0FB6F5B0007F13801FA6F0A44127807F180010B4403F86C2CFB6F5B00013307F12C01FA6F0A44127807F180010B4403F86C2CCF
:40024000FB6F0133FB67FB6F172BE0DD40E700BF801F000080B400AFFEE700BF80B586B000AF224B7B61224B3B61204B7B6135E03B691B68FB603B695B68BB603B699B6896
:400280003B6000237B600CE0FB681A68BB681A60BB680433BB60FB680433FB607B6804337B607A683B689A42EED13B69DB683B6000237B6008E0BB6800221A60BB68043337
:4002C000BB607B6804337B607A683B689A42F2D13B6910333B617B69013B7B617B69002BC6D101F011FEFFF7CDFEFEE7010000000020000080B582B000AF184B184A1A6089
:40030000184A184B1B6843F40073136000237B600FE07B68032B04D8134A7B6852F8233000E0124B12497A6841F822307B6801337B607B682F2BECD90E4B1B78DAB20E4BD7
:400340001A700E4B0A4A1A6000F086F900F050FB0B4B00221A600837BD4680BD0CED00E00004FA0514ED00E000000000550200000080FF1FBC7600400481FF1F08ED00E015
:400380000081FF1F80B582B000AF78603960786800213A6801F0E9FD0837BD4680BD00BF80B584B000AFF860B9607A60F868B9687A6801F0CFFD1037BD4680BD80B483B0EE
:4003C00000AF0346FB71FEE780B487B000AF7860396000233B6100237B6127E07B699B007A6813441B68BB60BB68FB73BB6823F0FF03BB6014E03B695B003A6813441B78AB
:400400001A46BB68134419463B695B003A6813445B780B703B6901333B61FB7B013BFB73FB7B002BE7D17B6901337B617B69292BD4D91C37BD465DF8047B704780B582B02F
:4004400000AF364B10221A80354B18221A70354B12221A80344B18221A70344B19221A80334B18221A70334B02221A704FF0402308221A70304B03221A70304B304A1278EA
:40048000D2B21A702F4B08221A802F4B41F251221A800023FB7019237B6014E0FB785B00DAB22A4B1B78DBB203F00103DBB21343DBB203F00303FB704FF4F07000F088FACE
:4004C0007B68013B7B607B68002B02D0FB78032BE4D17B68002B02D10320FFF76FFF1C4B4FF480721A801A4B07221A70194B00221A70194B48221A70154B00221A70174B40
:4005000002221A70164A164B1B78DBB243F00703DBB213700837BD4680BD00BF80400040824000408440004086400040884000408A4000400043004000420040A146004057
:400540000801004922420040204200402542004004400040064000400840004001400040A243004080B483B000AF294B1B78FB71284B1B78BB71284B1B787B71274AFB7972
:4005800003F00703DBB21370254AFB791B09DBB21370204ABB7943F00303DBB213701E4A7B7943F00303DBB213701E4B3F221A701D4B47F606121A801C4B40221A701C4B26
:4005C00000221A701B4B40221A701B4B40221A701A4B20221A701A4B40221A70194B90221A70194B21221A70184B60221A70184B01221A70084A7B791370064ABB79137009
:40060000144B44221A700C37BD465DF8047B7047CF010049F8460040F94600406E5800406F5800400C5100403C5100400159004003590040095900400B590040205B0040D6
:40064000245B0040285B00402B5B0040585B00405B5B00407658004080B586B000AF72B6564A564B1B78DBB243F00403DBB213700023FB7513E0FA7D13465B0013445B00EB
:400680004F4A13443B613B691A683B699B889BB210461946FFF776FEFB7D0133FB75FB7D082BE8D90023FB751CE0FA7D13469B0013445B00434A1344FB60FB681B68BB60E1
:4006C000FB685B687B60FB681A7A5B7A1B0213437B807B88B86879681A46FFF761FEFB7D0133FB75FB7D012BDFD94FF090403649FFF76AFE35480421FFF744FE34483549CE
:400700000422FFF74DFE344834490422FFF748FE334834490422FFF743FE334A324B1B78DBB243F00203DBB21370304A2F4B1B78DBB243F00203DBB213702D4A2C4B1B7863
:40074000DBB243F04003DBB213702A4A294B1B78DBB243F01003DBB21370274827490822FFF71EFE264827490A22FFF719FE264826490822FFF714FE254826490822FFF7CB
:400780000FFE254A244B1B78DBB243F00803DBB21370224B61221A70FFF750FE1F4B81221A701F4B01221A70FFF7DCFE1D4810490E22FFF7F5FD1837BD4680BDE8460040D1
:4007C000901F0000C81F0000A80000480076004008760040880B0048107600408C0B004818760040900B00480350014013500140A0430040C243004002510040640B0048E4
:40080000C05100406C0B004822510040780B004832510040800B0048224300400048004004000840B043004080B500AF054B1B78002B04D100F008F8024B01221A7000F047
:4008400023F880BD4C81FF1F80B400AF094B72221A70094B20221A70084B06221A70084B47221A70074B00221A70BD465DF8047B704700BF8A650040896500402364004006
:40088000336400408064004080B582B000AF00F0A7F80346FB71104A0F4B1B78DBB243F02003DBB213700D4A0C4B1B78DBB243F01003DBB213700A4A094B1B78DBB243F08A
:4008C0001003DBB2137000F069F8FB79184600F08BF80837BD4680BD9A650040996500409064004080B483B000AF0023FB710C4B1B78BB71BB7903F02003002B09D0094BB2
:400900001B78FB71BB7903F01E03002B01D00023FB71FB7918460C37BD465DF8047B7047696500404964004080B483B000AF0346FB7100BF074B1B78DBB203F00403002B26
:40094000F8D1054AFB7913700C37BD465DF8047B704700BF606400404464004080B584B000AF78600023FB810B4B1B78002B10D009E0FB897A6813441B781846FFF7D4FF09
:40098000FB890133FB81FB897A6813441B78002BEFD11037BD4680BD4C81FF1F80B400AF094A094B1B78DBB243F00403DBB21370064A064B1B78DBB243F00403DBB2137057
:4009C000BD465DF8047B7047A2430040B24300400230800803D000BF01380046FCD17047EFF3108072B6704780F31088704700BF80B483B000AF134B7F221A70124B802250
:400A00001A707F23FB710CE0FB79DB0003F1804303F5F043FA79013AD2B21A70FB79013BFB71FB79002BEFD1FB79DB0003F1804303F5F04300221A700C37BD465DF8047BD3
:400A4000704700BF0D81FF1F0C81FF1F80B485B000AF03460A46FB711346BB710123FB60FB79172B2FD8BB79002B0ED0FB791A01184B1344FA791101164A0A441278D2B204
:400A800042F02002D2B21A700DE0FB791A01114B1344FA7911010F4A0A441278D2B222F02002D2B21A70FB791A010A4B1344FA791101084A0A441278D2B242F00102D2B202
:400AC0001A700023FB60FB6818461437BD465DF8047B70471070004080B485B000AF0346FB710123FB60FB79172B1DD8FB791A01114B1344FA7911010F4A0A441279D2B220
:400B000042F00402D2B21A71FB791A010A4B1344FA791101084A0A441278D2B242F00102D2B21A700023FB60FB6818461437BD465DF8047B704700BF1070004080B485B0BD
:400B400000AF03460A46FB711346BB710123FB60FB79172B18D8FB791A010F4B13441B78DBB223F00E03FB72FB791A010A4B1344BA7902F00702D2B25200D1B2FA7A0A43A3
:400B8000D2B21A700023FB60FB6818461437BD465DF8047B704700BF1070004080B485B000AF0346FB710B46BB8013467B800123FB60BB8841F6FF72934202D14FF400533B
:400BC000BB807B8841F6FF72934202D14FF400537B80FB79172B17D8FB79DB0003F1804303F5EC430433BB60BB68BA881A80FB79DB0003F1804303F5EC430633BB60BB680F
:400C00007A881A800023FB60FB6818461437BD465DF8047B704700BF80B485B000AF03460A46FB711346BB710123FB60FB79172B07D8FB791A01064B1344BA795A72002332
:400C4000FB60FB6818461437BD465DF8047B70471070004090B484B000AF0446084611461A462346FB710346BB710B467B7113463B710123FB60FB79172B34D8FB79DB002D
:400C800003F1804303F5EC43BA7902F07F02D1B27A79D201D2B20A43D2B21A70FB79DB0003F1804303F5EC433A7E1201D1B23A7902F00F02D2B20A43D2B25A70FB79DB00E9
:400CC00003F1804303F5EC433A7F02F00F02D2B29A70FB79DB0003F1804303F5EC430022DA700023FB60FB6818461037BD4690BC704700BF80B582B000AFFF23FB71FFF74E
:400D00006FFE0346BB71104B1B78182B12D90F4B1B78FB710C4B1B78013BDAB20A4B1A70FB79DB0003F1804303F5F0431B78DAB2064B1A70BB791846FFF756FEFB791846F2
:400D40000837BD4680BD00BF0C81FF1F0D81FF1F90B484B000AF0446084611461A462346FB710346BB800B46BB711346FB700123FB60FB795BB2002B23DBBB8823F47F6369
:400D800023F00F039BB2002B1BD1FB79DB0003F1804303F5F043BB60BB68BA881A80FB79DB0003F1804303F5F043BA799A70FB79DB0003F1804303F5F043FA78DA700023E1
:400DC000FB60FB6818461037BD4690BC704700BF80B485B000AF0346FB710B46BB8013467B800123FB60FB795BB2002B17DBFB79DB0003F1804303F5F0430433BB60BB685B
:400E0000BA881A80FB79DB0003F1804303F5F0430633BB60BB687A881A800023FB60FB6818461437BD465DF8047B704780B483B000AF0346FB7101BE0C37BD465DF8047BD6
:400E4000704700BF80B582B000AF0346FB80FB88044A127802FB03F31846FFF7B9FD0837BD4680BD1C81FF1F80B584B000AF03463960FB710F4B1B68FB60FB791F2B02D959
:400E80000020FFF7D3FFFB7903F01F0310339B00FA6813441B68BB60FB7903F01F0310339B00FA6813443A681A60BB6818461037BD4680BD08ED00E080B582B000AF034614
:400EC0000A46FB711346BB71BB79072B02D90020FFF7ACFFFB791F2B02D90020FFF7A6FFFB7903F01F0303F1604303F56443BA795201D2B21A700837BD4680BD80B500AFA5
:400F0000022001214FF4804241F6FF7300F068FA03461A460A4B1A701620012141F6FF7241F6FF7300F090FA03461A46054B1A70054800F0BDFA002000F0CCFA80BD00BF79
:400F40005481FF1F5581FF1F4D11000080B582B000AF444B1B781846FFF7BEFD424B1B781846FFF7B9FD414B1B78FF2B05D1FFF7C1FE03461A463D4B1A703C4B1A783B4B8D
:400F80001B78104616211A460623FFF7E1FE374B1A78374B9BB2104645F6A2311A46FFF717FF304B1A78314B1B7810461946FFF733FE304B1B78FF2B05D1FFF79BFE034622
:400FC0001A462C4B1A702B4B1A782A4B1B78104616211A460723FFF7BBFE264B1978244B9AB2254B9BB2084611461A46FFF7F0FE1D4B1A781F4B1B7810461946FFF70CFEAB
:40100000184B1B7818460121FFF720FD164B1B7818460121FFF71AFDFFF7E2FC0346FB71164A164B1B78DBB243F02003DBB21370FB791846FFF7D8FC114A114B1B78DBB263
:4010400043F00103DBB213700D4A0D4B1B78DBB243F00203DBB213700A4B01221A600837BD4680BD5481FF1F5581FF1F2481FF1F5881FF1F2581FF1F8481FF1F97640040DE
:401080007464004080E200E080B500AF074B1B68002B04D1FFF732FF044B01221A60FFF755FF00F059F8024B1B7880BD5081FF1F6864004080B500AF00F0FCF880BD00BFA3
:4010C00080B485B000AF0346FB71084B1B78FB73FB7B002B02D1FB79002BF6D0FB7B18461437BD465DF8047B704700BF6864004080B483B000AF0346FB80FB88C3F10A0360
:40110000084A32F813309AB2074B1B889BB29BB2D31A9BB29BB21BB218460C37BD465DF8047B70478481FF1FA481FF1F80B582B000AF0346FB80B7F90630184600F00AF91B
:40114000034618460837BD4680BD00BF80B400AFBD465DF8047B704780B500AF054B1B78002B04D100F008F8024B01221A7000F019F880BD7081FF1F80B500AF074A074B94
:401180001B78DBB243F00603DBB213700C2000F069F8034B00221A8080BD00BF095900409E81FF1F80B582B000AFFFF719FC0346FB71244A234B1B78DBB243F00203DBB2CA
:4011C0001370214A204B1B78DBB243F00203DBB213701E4B1B78BB71BB7943F00203BB71BB7943F00103BB71184ABB791370184B18221A70174A174B1B78DBB243F040033E
:40120000DBB21370134A134B1B78DBB223F00303DBB21370104BC8221A70104B02221A700F4A0F4B1B78DBB243F00803DBB213700A20FFF707FEFB791846FFF7D5FB0837A5
:40124000BD4680BDAB430040BB4300400B5900400E5900400D59004008590040164600402F5B004080B584B000AF0346FB71FB790A2B07D00C2B02D0082B06D008E0C2239E
:40128000FB730BE08223FB7308E04223FB7305E0C223FB730020FFF7C9FD00BF044AFB7B1370FB79184600F015F81037BD4680BD0A59004080B400AF054A054B1B78DBB252
:4012C00043F00103DBB21370BD465DF8047B70470859004080B584B000AF0346FB71FB790A2B08D00C2B02D0082B08D00BE04FF48053FB600DE04FF48063FB6009E04FF420
:401300008073FB6005E00023FB600020FFF78EFD00BF0C4B00221A80FB6842F2107202FB03F303F6A113084A82FB03121212DB17D31A064A1360064B00221A801037BD46CF
:4013400080BD00BF9C81FF1F1F164B0DA081FF1FA481FF1F80B485B000AF0346FB801D4B1B889BB2002B09D01A4B1B889BB21AB213469B0013445B00FB6002E0164B1B6807
:40138000FB60164B1B889BB2FA889BB2D31A9BB2FB80B7F9063042F2107202FB03F2B7F90630002B04DDFB68D90F0B445B1004E0FB68D90F0B445B105B421A44FB6892FBA4
:4013C000F3F37B817B891BB218461437BD465DF8047B70479C81FF1FA081FF1F9E81FF1F90B585B002AF0446084611461A462346FB710346BB710B46BB8013467B80114B4C
:4014000001221A700F4B1878F979BA7900230093002301930123FFF71DFC0A4B1978BA887B88084611461A46FFF7B8FB054B1B7818460221FFF782FB024B1B7818460C379F
:40144000BD4690BD2681FF1F90B585B002AF0446084611461A462346FB710346BB710B46BB8013467B80114B00221A700F4B1878F979BA7900230093002301930023FFF796
:40148000E9FB0A4B1978BA887B88084611461A46FFF784FB054B1B7818460221FFF74EFB024B1B7818460C37BD4690BD2781FF1F80B485B000AF7860054B1B68FB60FB68E8
:4014C00040337A681A601437BD465DF8047B704708ED00E080B483B000AF0346FB71054AFB795B01DBB213700C37BD465DF8047B704700BF00E400E080B500AF154B41227A
:401500001A70154BC1221A70144B08221A70144B0F221A70134B00221A70134B4FF400421A600F200721FFF7C7FC0F200F49FFF79BFC0F4B00221A700E4B00221A700E4B38
:4015400000221A700D4B00221A700D4B00221A8080BD00BFD6490040C8490040CA490040DB490040DC49004080E100E0A9160000B281FF1FAC81FF1FB481FF1FB381FF1F9E
:40158000B081FF1F80B582B000AFFFF729FA0346FB710D4A0C4B1B78DBB243F00403DBB213700A4A094B1B78DBB243F00403DBB21370FB791846FFF717FA054B4FF4004220
:4015C0001A600837BD4680BDA5430040B543004000E100E080B500AF054B1B78002B04D1FFF78AFF024B01221A70FFF7CBFF80BD7181FF1F80B483B000AF0D4B4FF4004291
:401600001A600C4B1B78FB710A4B1B78DBB203F01003DAB2074B1A70074B4FF400421A60FB7918460C37BD465DF8047B704700BF80E100E0AC81FF1F00E100E080B483B090
:4016400000AF03463A60FB800B46BB800F4B4FF400421A603B68002B08D00D4A3B6813600C4AFB8813800C4ABB8813800B4B00221A700B4B00221A700A4B4FF400421A6075
:401680000C37BD465DF8047B704700BF80E100E0A881FF1FAE81FF1FB081FF1FB481FF1FB381FF1F00E100E080B400AF864B1B78DAB2864B1A70854B1B7803F00803002B56
:4016C00042D0834B1B78DBB203F00103002B24D07F4A804B1B6880490978C9B20B441B78DBB21370784B14221A707B4B1B78DAB27A4B1A70794B1B78DBB20133DAB2774BE9
:401700001A70774B1B78DBB243F01103DAB2744B1A70744B08221A70B7E06B4B10221A706F4B1B78DBB243F01203DAB26C4B1A706C4B01221A706C4A6B4B1B78DBB243F093
:401740001003DBB21370A0E0604B1B7803F00103002B00F09A80634B1B78DBB2042B24D0082B48D0012B40F08380594B1B78DAB25E4B1A705D4B1B789AB25D4B1B889BB2AC
:401780009A420ED2504B10221A70584B1A78524B1A70564B1A78514B1A70524B04221A7073E0494B00221A706FE04C4B1B78DBB29AB2504B1B889BB29A4218D2444B1B78BC
:4017C000DAB24A4B1A70404B10221A70414B1B68424A1278D2B21344444A12781A703F4B1B78DBB20133DAB23C4B1A704DE0364B00221A7049E0354B1B7803F00203002B21
:4018000024D1364B1B78DBB29AB2394B1B889BB29A4214D22E4A2F4B1B6830490978C9B20B441B78DBB21370274B04221A702B4B1B78DBB20133DAB2284B1A7025E0244BCB
:40184000FF221A70204B04221A701EE0204BFF221A701D4B00221A70214B1B78DBB223F01003DAB21E4B1A701E4B00221A700CE01C4B00221A70184B00221A70174B0022A2
:401880001A70114B00221A7000BF0F4B1B78DBB203F02003002B12D0114B1B78DBB223F01003DAB20E4B1A700E4B00221A700E4A0D4B1B78DBB223F01003DBB21370BD461B
:4018C0005DF8047B704700BFD74900407281FF1FD8490040A881FF1FB481FF1FB381FF1FAC81FF1FB281FF1FD64900407381FF1FAE81FF1FB081FF1F80B500AF022001210F
:401900004FF4804241F6FF7300F072FA03461A460A4B1A700220012141F6FF7241F6FF7300F09AFA03461A46054B1A70054800F0C7FA012000F0D6FA80BD00BF7881FF1F87
:401940007981FF1F491B000080B582B000AF444B1B781846FFF7C0F8424B1B781846FFF7BBF8414B1B78FF2B05D1FFF7C3F903461A463D4B1A703C4B1A783B4B1B7810466C
:4019800002211A460623FFF7E3F9374B1A78374B9BB2104645F6A0311A46FFF719FA304B1A78314B1B7810461946FFF735F9304B1B78FF2B05D1FFF79DF903461A462C4B4C
:4019C0001A702B4B1A782A4B1B78104602211A460723FFF7BDF9264B1978244B9AB2254B9BB2084611461A46FFF7F2F91D4B1A781F4B1B7810461946FFF70EF9184B1B789F
:401A000018460121FFF722F8164B1B7818460121FFF71CF8FEF7E4FF0346FB71164A164B1B78DBB243F02003DBB21370FB791846FEF7DAFF114A114B1B78DBB243F0010316
:401A4000DBB213700D4A0D4B1B78DBB243F00203DBB213700A4B02221A600837BD4680BD7881FF1F7981FF1F2881FF1F7C81FF1F2981FF1FB881FF1F9A6400407964004042
:401A800080E200E080B500AF074B1B68002B04D1FFF732FF044B01221A60FFF755FF00F059F8024B1B7880BD7481FF1F6765004080B500AF00F0FCF880BD00BF80B485B024
:401AC00000AF0346FB71084B1B78FB73FB7B002B02D1FB79002BF6D0FB7B18461437BD465DF8047B704700BF6765004080B483B000AF0346FB80FB885B42094A32F8133023
:401B00009AB2084B1B889BB29BB2D31A9BB29BB21BB218460C37BD465DF8047B704700BFB881FF1FBC81FF1F80B582B000AF0346FB80B7F90630184600F014F90346184613
:401B40000837BD4680BD00BF80B400AFBD465DF8047B704780B500AF054B1B78002B04D100F008F8024B01221A7000F019F880BD8081FF1F80B500AF074A074B1B78DBB201
:401B800043F00603DBB213700C2000F069F8034B00221A8080BD00BF01590040C481FF1F80B582B000AFFEF71BFF0346FB71244A234B1B78DBB243F00103DBB21370214AD1
:401BC000204B1B78DBB243F00103DBB213701E4B1B78BB71BB7943F00203BB71BB7923F00103BB71184ABB791370184B80221A70174A174B1B78DBB243F04003DBB21370CB
:401C0000134A134B1B78DBB223F00303DBB21370104BC8221A70104B02221A700F4A0F4B1B78DBB243F00803DBB213700A20FFF709F9FB791846FEF7D7FE0837BD4680BD6A
:401C4000AB430040BB4300400359004006590040055900400059004014460040275B004080B584B000AF0346FB71FB790A2B07D00C2B02D0082B06D008E0C423FB730BE0A3
:401C80008423FB7308E04423FB7305E0C423FB730020FFF7CBF800BF044AFB7B1370FB79184600F015F81037BD4680BD0259004080B400AF054A054B1B78DBB243F001036F
:401CC000DBB21370BD465DF8047B70470059004080B584B000AF0346FB71FB790A2B0BD00C2B02D0082B0ED013E04FF48053FB604FF400637B8114E04FF48063FB604FF484
:401D000000737B810DE04FF48073FB6080237B8107E00023FB6000237B810020FFF786F800BF0C4B00221A80FB6842F2107202FB03F303F59A530233074A82FB03125212C0
:401D4000DB17D31A054A13607A89054B1A801037BD4680BDC681FF1F1F164B0DC081FF1FBC81FF1F80B485B000AF0346FB801D4B1B889BB2002B09D01A4B1B889BB21AB249
:401D800013469B0013445B00FB6002E0164B1B68FB60164B1B889BB2FA889BB2D31A9BB2FB80B7F9063042F2107202FB03F2B7F90630002B04DDFB68D90F0B445B1004E0C3
:401DC000FB68D90F0B445B105B421A44FB6892FBF3F37B817B891BB218461437BD465DF8047B7047C681FF1FC081FF1FC481FF1F90B585B002AF0446084611461A462346FF
:401E0000FB710346BB710B46BB8013467B80114B03221A700F4B1878F979BA7900230093002301930323FEF715FF0A4B1978BA887B88084611461A46FEF7B0FE054B1B78F5
:401E400018460221FEF77AFE024B1B7818460C37BD4690BD2A81FF1F90B585B002AF0446084611461A462346FB710346BB710B46BB8013467B80114B02221A700F4B187842
:401E8000F979BA7900230093002301930223FEF7E1FE0A4B1978BA887B88084611461A46FEF77CFE054B1B7818460221FEF746FE024B1B7818460C37BD4690BD2B81FF1F40
:401EC00080B485B000AF7860054B1B68FB60FB6844337A681A601437BD465DF8047B704708ED00E080B483B000AF0346FB71054AFB795B01DBB213700C37BD465DF8047BCC
:401F0000704700BF01E400E00E4B70B51E460E4C0025E41AA410A54204D056F8253098470135F8E700F05AF8084B094C1E46E41AA4100025A54204D056F825309847013569
:401F4000F8E770BDE81F0000E81F0000E81F0000F01F000010B5431E0A44914204D011F8014B03F8014FF8E710BD03460244934202D003F8011BFAE77047000000000000E5
:401F8000434F4D20506F7274204F70656E000000C84900401900105100401000405100403000F0510040100000000140001000140140000800400140000A004C0140000256
:401FC0001050014010000000605200404C0B0048060000500140540B00481000F8B500BFF8BC08BC9E4670474D000000F5020000F8B500BFF8BC08BC9E46704729000000E6
:40200000102000000881FF1F280000009800000000000000807F00000F00000000366E01C05D0000180000000000E02EFFFFFFFFFFFFFFFF0000000000000000000000001B
:402040000000000000000000000000000000000000000000000000000000000000000000000000000000000000000000000000000000000000000000000000000000000060
:402080000000000000000000000000000000000000000000000000000000000000000000000000000000000000000000000000000000000000000000000000000000000020
:4020C00000000000000000000000000000000000000000000000000000000000000000000000000000000000000000000000000000000000000000000000000000000000E0
:40210000000000000000000000000000000000000000000000000000000000000000000000000000000000000000000000000000000000000000000000000000000000009F
:020000040003F7
:0200000480007A
:400000000149004006520040025B00400264004002650040220001402B010140450201403E0301402D0401404F05014022060140430701402E0801404F090140340A014050
:400040004C0B0140160C0140300D0140010F014025140140441501402B1601404917014028180140461901402F1A0140441B01400C400140134101400C42014006430140F9
:40008000054401400845014009460140064701400A48014015490140104C01400E4D01400550014003510140D6400029012C10021102186A190927842F84800F870A893800
:4000C0008A72014003030D0C0F231A011B081E011F0C20012121230624012521270E2D102E01310F33103601376039803B023E403F045401580459045B045C205D205F0184
:40010000D804D904DF0101440288070108210A020B140E800F181050111812011541160819402042224528522A402D042E0831203240340136C8370138403A013C083D4027
:400140003F18582259405A0885018608C08FC27FC4DFCA4BCCDCCE79D60FE208010E03010505070A0B0F0C030D0F1003110F160318021A011D0F200122022803290C2B03A6
:400180002C03310233013401350436023708580459045F01822883018C038E1C9102940396349A209C2A9D039E14A103A215A403A604B00FB503B638B920BA82BF10C002C7
:4001C000C640C9FFCA07CBFFCC40CD20CEF0CF05D008D804D904DA04DC12DD02DF01E040E1A8E240E3200042070109240A020D100E800F10130515411608184019411B403B
:400200001FA0200424082792284029092A802D10302031403201330836C037013A133B413D413E083F1840044B01512080048144834089088B088F8091019202955097143E
:400240009C409E499F01A001A404A524A680C089C277C4DCCA2BCC9FCEFDD004E404E690EC40000902100C0C0E110F011203142018101C1C1E022010220C24142820301FE0
:400280003420350138203E1040414105450C46BE480D49FF4AFF4BFF4EF04F44500C52035302580459045A045B045C025D025F0166C06A406B02D804D904DF01000202027C
:4002C0000510071009280A420D040E080F181068142015301604170118041A4020082110282029112F20333036843701380239A83C083D403F104040420249404A024B04DC
:400300005020524068086AA08114828087C089188A108C818E408F049040920295709754984099409A029D089ED09F01A001A128A308A404A680A704AB10AC20AF20B3824D
:40034000B608C069C26FC47ECA47CCD4CE7FD009D208E202E405E602EAE2580459045C115F01831087208B048F08900491109740980199209F01A101A203A508A904AF02BB
:40038000B204B37CB402B601B703B908BE04BF04D602D735D80DD904DB0CDC91DF010528061007040A440E200F401302151017C019041A041B802020224023122862291077
:4003C0002B802D202F0831093240332135083610378038A0390A3D303F405A206004680A698A70507180789083808D0190049260934095C0971098809A049B809C209D156C
:400400009E109F01A110A210A308A724A910AA80C060C23AC4C8CA2FCC7FCE3FD604D804DE0CEA015401580459045B0D5C115F0182028B0192019F01AA02B603B701BE408D
:40044000BF40C062C104C205C401C50EC6C0C809C9FFCAFFCBFFCC62CDA0CEF0CF41D00CD203D302D804D904DA04DB04DD12DF01E640E702E910EA30EB10ED10EE10EF1238
:4004800000020108020205320610071008280A800D020E101002110112201310148018012280280829082B402D202F10314132203380348035023710382039013B403E10BE
:4004C000400141104302480849444E024F4050105C4065016602678069406B067F088C028F40908092109320954097809888991A9A109C049F04A102A226A30AA740AA10F0
:40050000B040B111B310B420C07DC23EC41FCA67CCBDCE2DD00DD20CD610DE20E4400002048006400B040E020F011020121014081502160418011E01240425022608281053
:400540002A202C402E803104330234FF350139083A023E103F045602573A580459045B0C5C125D105F0191019201A303A801AE02B003B301B603B702D608D804D90DDB0476
:40058000DC09DD90DF0100880102021009820A340E801022111013401401171018801B121E801F802008210B26042711282029022A902F80310232103304370139103A0830
:4005C0003B405B045D806108640168626914718079407F08810882028404868489028A028F08921495269780988899929A089C049E12A220A440A582A606A750AE04B50421
:40060000B624C00DC21FC4C7CA8FCC87CE0ED612D812DE28E010E280E421E810EA40580459045C015F01860289028E0493029B019D019E01A704B004B202B401B707B98086
:40064000BF40D804D904DC01DF01008001060511070209820A140D010F0812101302161019131A141B04230228092B502C042F403004319134013504368239203A063B80DB
:400680003E023F80610462048008828088808A088B0297809980B580C0DDC25FC42CCAAFCCDFCE9FE220E6A0EC40874007010B02310135025608580459045B045D905F015F
:4006C000800682018502870188028A058B038C018D038E0693039503960798019A069D03A007A407A903B001B102B204B402B701D804D904DF010040010202040440050332
:40070000060408400A200C100F1810181310144017081D181F022040221023082541281429412C0430083210344035413708386039083C403F185B80600281018204894090
:400740008B028D1890209108931094409620980499419A049B809C02A304AC20AD40B340C0DBC265C436CA2FCCD6CE7ED608D808E001E240E6B0E810EA01EC20EE040401D1
:400780000A011001140128012C01300138203E10580459045C015F018104850889018F0891809340952097109B019D029E01A304A540A780A910AA02AB20AE04AF02B0041E
:4007C000B3FFB402B601BF04D401D804D904DB0DDD10DF010060032005080704082409800A400E200F40102812011510174019611A401B201C081F02210829612A042B0492
:400800002C202D20302A31903210340435413860390A3A013C403F10440446045840781083028780880489088D209020911A9350944098509A049B449C229D19A01AA18065
:40084000A210A508A704A840AB20AC10B010B420B540C067C23FC4C7CA6FCCDFCE3FD608DE04EC04EE02580459045C115F018044822086C38A048CDF8D0290C093019418E5
:40088000950298C79A189C109D02A01CA2C2A408A701A880AC1CAD02AEC1B0C0B102B220B501B61FBA80BF11D418D804D904DB04DC12DD20DF01000A030A052209880A8889
:4008C0000E101061131014A01510180219411B0820042201280129262B012D202F1030583140320634A03512388839103B223E10581059015A1060046280808489108D10B3
:400900008E018F01908092109320952096809710988C991EA280A346A409A780A820AA02AB04AF02B004B101B440B604C05FC22FC47FCA6FCCBFCE2FD601D80CE030E280DE
:40094000EC8000010301057E0633097E0C3F10031102140C1548171418331A0C1C1C1D101E231F6020082301240425242718280229012C0F2D012E30302C3101330C340FED
:400980003502361C377039023A2256025713580459045B045C225D205F01D804D904DF01000A03020508070209080A880B020C040D400F8810A11310140819111A081B8101
:4009C00020082110224A2310282029112B022C042D0832483301340836013702380239143B023E103F885A0269146B0170A0718881408210882190029202952096889710CE
:400A0000980D9908A201A346A425A588A602A781B120C0ADC2FFC44FCA6FCCCBCE77D601E830EA01EC20EE04100811081688311036803B023E884201C4F0CC30CEE0D010D5
:400A40005380570858105F206302660183088A018F20960197029D10A008A680B504D4E0D660D880E6803E109702A008A680AA01AF80B010B301B510CE20EA20EE10828000
:400A800096109702A008A680E620101014207104C40CDC0123805E808B8298309D04C802D604E6051B022440810498309D04A640A702C608C80144019830A640B440D004D7
:400AC000EA02208024088308840896109702A008C860E040E22050015220540256805B015F08822088028B018C018E809B08AA10AB01B040B404D4E0D6E0E680EA80EE20F8
:400B00001210132016201F80340278107C208A4098309C01A640C40EC601CC01DE03E00410407220761088409A30ABA0B001B402C408DC01DE04E201E808EC0410071101CE
:400B40001A031B011C07000F03C010AA10300000700000000701000000000000070007010701030000000000003F3F00B0004080B000B00000300000000202000200000037
:400B800000000000007F7F00000100000002000000030000000000000000000000000000000000000000000000000000000000000000000000000000000000000000000031
:400BC00000000000000000000000000000000000000000000000000000000000000000000000000000000000000000000000000000000000000000000000000000000000F5
:400C000000000000000000000000000000000000000000000000000000000000000000000000000000000000000000000000000000000000000000000000000000000000B4
:400C40000000000000000000000000000000000000000000000000000000000000000000000000000000000000000000000000000000000000000000000000000000000074
:400C80000000000000000000000000000000000000000000000000000000000000000000000000000000000000000000000000000000000000000000000000000000000034
:0200000490006A
:0400000000004005B7
:0200000490105A
:04000000BC90ACAF55
:0200000490303A
:02000000D3F734
:0200000490402A
:4000000000000000000000000000000000000000000000000000000000000000000000000000000000000000000000000000000000000000000000000000000000000000C0
:400040000000000000000000000000000000000000000000000000000000000000000000000000000000000000000000000000000000000000000000000000000000000080
:400080000000000000000000000000000000000000000000000000000000000000000000000000000000000000000000000000000000000000000000000000000000000040
:4000C0000000000000000000000000000000000000000000000000000000000000000000000000000000000000000000000000000000000000000000000000000000000000
:0200000490501A
:0C00000000012E16106900012E25E4609E
:00000001FF