:400000000080002011000000F9020000F902000080B500AF024A034B1B68136000F098F9BC760040FA46004010B5054C237833B9044B13B10448AFF300800123237010BD90
:400040009081FF1F00000000F4210000084B10B51BB108480849AFF300800848036803B910BD074B002BFBD0BDE81040184700BF00000000F42100009481FF1F0881FF1F07
:400080000000000080B594B000AF62B601F030F800F0FCFB01F0D2FA07F110030C2001211A4601F0FFFA002387F84E30002387F84D30002387F84C30002387F84F3001F031
:4000C0002DF8854800F07CFC00F03EFC034687F8473097F84730582B21D0582B0BDC432B15D0432B02DC002B21D021E0452B1AD0532B10D01CE0652B15D0652B02DC632B78
:4001000005D015E0732B06D0782B08D010E0012387F84D300CE0012387F84E3008E0002387F84E3004E0012387F84C3000E000BF012000F0F9FF0346002B00F0CC80002363
:40014000BB640023BB6434E0BB6C9BB2184601F003F80346A7F84430B7F94430184601F019F80246BB6C9B0007F150010B4443F8242CBB6C9B0007F15002134453F8243C31
:40018000D9B207F12402BB6C13440A461A70BB6C9B0007F15002134453F8243C1B12D9B207F11C02BB6C13440A461A70BB6C0133BB64BB6C052BC7DD01F050FA034603F01E
:4001C0001003002B21D10023BB641BE0BB6C5B0007F12401BA6C0A44127807F150010B4403F8402CBB6C5B00013307F11C01BA6C0A44127807F150010B4403F8402CBB6C07
:400200000133BB64BB6C052BE0DD97F84D30002B03D197F84E30002B45D0FB6A3A4610462E491A4601F0DCFB3B46184600F0C8FB3B6B3A4610462A491A4601F0D1FB3B4606
:40024000184600F0BDFB7B6B3A46104625491A4601F0C6FB3B46184600F0B2FBBB6B3A46104621491A4601F0BBFB3B46184600F0A7FBFB6B3A4610461C491A4601F0B0FB45
:400280003B46184600F09CFB3B6C3A46104618491A4601F0A5FB3B46184600F091FB002387F84D3017E097F84C30002B13D097F84F303A4610460F491A4601F091FB3B46E5
:4002C000184600F07DFB97F84F30013387F84F30002387F84C30F7E6F8210000082200001C220000342200004422000054220000682200008022000080B400AFFEE700BF97
:4003000080B584B000AF78600F4B1A687B6813441A460E4BD31A802B09DC0B4B1B68FB60094B1A687B681344074A136007E001F017FB02460C2313604FF0FF33FB60FB6876
:4003400018461037BD4680BD0C81FF1F0082FF1F80B586B000AF224B7B61224B3B61204B7B6135E03B691B68FB603B695B68BB603B699B683B6000237B600CE0FB681A6870
:40038000BB681A60BB680433BB60FB680433FB607B6804337B607A683B689A42EED13B69DB683B6000237B6008E0BB6800221A60BB680433BB607B6804337B607A683B680B
:4003C0009A42F2D13B6910333B617B69013B7B617B69002BC6D101F0C9FAFFF753FEFEE7010000003823000080B582B000AF184B184A1A60184A184B1B6843F40073136043
:4004000000237B600FE07B68032B04D8134A7B6852F8233000E0124B12497A6841F822307B6801337B607B682F2BECD90E4B1B78DAB20E4B1A700E4B0A4A1A6000F058F949
:4004400000F00AFB0B4B00221A600837BD4680BD0CED00E00004FA0514ED00E000000000F90200000080FF1FBC7600400481FF1F08ED00E00081FF1F80B582B000AF786049
:400480003960786800213A6801F0A1FA0837BD4680BD00BF80B584B000AFF860B9607A60F868B9687A6801F087FA1037BD4680BD80B483B000AF0346FB71FEE780B487B05C
:4004C00000AF7860396000233B6100237B6127E07B699B007A6813441B68BB60BB68FB73BB6823F0FF03BB6014E03B695B003A6813441B781A46BB68134419463B695B0026
:400500003A6813445B780B703B6901333B61FB7B013BFB73FB7B002BE7D17B6901337B617B69262BD4D91C37BD465DF8047B704780B582B000AF334B10221A80324B1822B9
:400540001A70324B19221A80314B18221A70314B02221A704FF0402308221A702E4B03221A702E4B2E4A1278D2B21A702D4B08221A802D4B41F251221A800023FB70192370
:400580007B6014E0FB785B00DAB2284B1B78DBB203F00103DBB21343DBB203F00303FB704FF4F07000F048FA7B68013B7B607B68002B02D0FB78032BE4D17B68002B02D1CE
:4005C0000320FFF775FF1A4B4FF480721A80184B07221A70174B00221A70174B48221A70134B00221A70154B02221A70144A144B1B78DBB243F00303DBB213700837BD4640
:4006000080BD00BF804000408240004084400040864000400043004000420040A1460040080100492242004020420040254200400440004006400040084000400140004034
:40064000A243004080B483B000AF1E4B1B78FB711D4B1B78BB711D4B1B787B711C4AFB7903F00703DBB213701A4AFB791B09DBB21370154ABB7943F00303DBB21370134A9D
:400680007B7943F00303DBB21370134B3F221A70124B40221A70124B40221A70114BF0221A70114B20221A70084A7B791370064ABB7913700D4B44221A700C37BD465DF84F
:4006C000047B7047CF010049F8460040F94600406E5800406F5800400D5100400159004003590040205B0040235B00407658004080B586B000AF72B64F4A4F4B1B78DBB2B1
:4007000043F00403DBB213700023FB7513E0FA7D13465B0013445B00484A13443B613B691A683B699B889BB210461946FFF7A4FEFB7D0133FB75FB7D082BE8D90023FB75E5
:400740001CE0FA7D13469B0013445B003C4A1344FB60FB681B68BB60FB685B687B60FB681A7A5B7A1B0213437B807B88B86879681A46FFF78FFEFB7D0133FB75FB7D002B46
:40078000DFD04FF090402F49FFF798FE2E480421FFF772FE2D482E490422FFF77BFE2D4A2C4B1B78DBB243F00203DBB213702A4A294B1B78DBB243F00203DBB21370274ADE
:4007C000264B1B78DBB243F04003DBB21370244A234B1B78DBB243F01003DBB21370214821490822FFF756FE204821490A22FFF751FE204820490822FFF74CFE1F4A1F4BF8
:400800001B78DBB243F00803DBB213701C4B61221A70FFF78DFE1A4B81221A70194B01221A70FFF70FFF18480C490E22FFF732FE1837BD4680BD00BFE8460040982200002D
:40084000D02200009C0000480076004008760040380800480350014013500140A0430040C2430040025100401C080048C0510040240800482251004030080048224300406A
:400880000048004004000840B043004080B500AF054B1B78002B04D100F008F8024B01221A7000F023F880BDAC81FF1F80B400AF094B72221A70094B20221A70084B0622FD
:4008C0001A70084B47221A70074B00221A70BD465DF8047B704700BF8B6500408664004024640040346400408464004080B582B000AF00F0A9F80346FB71104A0F4B1B7818
:40090000DBB243F02003DBB213700D4A0C4B1B78DBB243F01003DBB213700A4A094B1B78DBB243F01003DBB2137000F069F8FB79184600F08DF80837BD4680BD9B6500402B
:40094000966400409464004080B483B000AF0023FB710C4B1B78BB71BB7903F02003002B09D0094B1B78FB71BB7903F01E03002B01D00023FB71FB7918460C37BD465DF869
:40098000047B7047666400404465004080B483B000AF0346FB7100BF074B1B78DBB203F00403002BF8D1054AFB7913700C37BD465DF8047B704700BF64640040476400405B
:4009C00080B584B000AF78600023FB810B4B1B78002B10D009E0FB897A6813441B781846FFF7D4FFFB890133FB81FB897A6813441B78002BEFD11037BD4680BDAC81FF1FD3
:400A000080B400AF094A094B1B78DBB243F00203DBB21370064A064B1B78DBB243F00203DBB21370BD465DF8047B7047A2430040B2430040000000000230800803D000BF87
:400A400001380046FCD17047EFF3108072B6704780F31088704700BF80B483B000AF134B7F221A70124B80221A707F23FB710CE0FB79DB0003F1804303F5F043FA79013AA0
:400A8000D2B21A70FB79013BFB71FB79002BEFD1FB79DB0003F1804303F5F04300221A700C37BD465DF8047B704700BF1181FF1F1081FF1F80B485B000AF03460A46FB71C4
:400AC0001346BB710123FB60FB79172B2FD8BB79002B0ED0FB791A01184B1344FA791101164A0A441278D2B242F02002D2B21A700DE0FB791A01114B1344FA7911010F4AFF
:400B00000A441278D2B222F02002D2B21A70FB791A010A4B1344FA791101084A0A441278D2B242F00102D2B21A700023FB60FB6818461437BD465DF8047B7047107000408E
:400B400080B485B000AF0346FB710123FB60FB79172B1DD8FB791A01114B1344FA7911010F4A0A441279D2B242F00402D2B21A71FB791A010A4B1344FA791101084A0A445A
:400B80001278D2B242F00102D2B21A700023FB60FB6818461437BD465DF8047B704700BF1070004080B485B000AF03460A46FB711346BB710123FB60FB79172B18D8FB7912
:400BC0001A010F4B13441B78DBB223F00E03FB72FB791A010A4B1344BA7902F00702D2B25200D1B2FA7A0A43D2B21A700023FB60FB6818461437BD465DF8047B704700BF10
:400C00001070004080B485B000AF0346FB710B46BB8013467B800123FB60BB8841F6FF72934202D14FF40053BB807B8841F6FF72934202D14FF400537B80FB79172B17D8DB
:400C4000FB79DB0003F1804303F5EC430433BB60BB68BA881A80FB79DB0003F1804303F5EC430633BB60BB687A881A800023FB60FB6818461437BD465DF8047B704700BFDF
:400C800080B485B000AF03460A46FB711346BB710123FB60FB79172B07D8FB791A01064B1344BA795A720023FB60FB6818461437BD465DF8047B70471070004090B484B0F8
:400CC00000AF0446084611461A462346FB710346BB710B467B7113463B710123FB60FB79172B34D8FB79DB0003F1804303F5EC43BA7902F07F02D1B27A79D201D2B20A433C
:400D0000D2B21A70FB79DB0003F1804303F5EC433A7E1201D1B23A7902F00F02D2B20A43D2B25A70FB79DB0003F1804303F5EC433A7F02F00F02D2B29A70FB79DB0003F19B
:400D4000804303F5EC430022DA700023FB60FB6818461037BD4690BC704700BF80B582B000AFFF23FB71FFF76FFE0346BB71104B1B78182B12D90F4B1B78FB710C4B1B78F7
:400D8000013BDAB20A4B1A70FB79DB0003F1804303F5F0431B78DAB2064B1A70BB791846FFF756FEFB7918460837BD4680BD00BF1081FF1F1181FF1F90B484B000AF0446A5
:400DC000084611461A462346FB710346BB800B46BB711346FB700123FB60FB795BB2002B23DBBB8823F47F6323F00F039BB2002B1BD1FB79DB0003F1804303F5F043BB601A
:400E0000BB68BA881A80FB79DB0003F1804303F5F043BA799A70FB79DB0003F1804303F5F043FA78DA700023FB60FB6818461037BD4690BC704700BF80B485B000AF0346AC
:400E4000FB710B46BB8013467B800123FB60FB795BB2002B17DBFB79DB0003F1804303F5F0430433BB60BB68BA881A80FB79DB0003F1804303F5F0430633BB60BB687A88DD
:400E80001A800023FB60FB6818461437BD465DF8047B704780B483B000AF0346FB7101BE0C37BD465DF8047B704700BF80B582B000AF0346FB80FB88044A127802FB03F33E
:400EC0001846FFF7B9FD0837BD4680BD2081FF1F80B584B000AF03463960FB710F4B1B68FB60FB791F2B02D90020FFF7D3FFFB7903F01F0310339B00FA6813441B68BB60CD
:400F0000FB7903F01F0310339B00FA6813443A681A60BB6818461037BD4680BD08ED00E080B582B000AF03460A46FB711346BB71BB79072B02D90020FFF7ACFFFB791F2B38
:400F400002D90020FFF7A6FFFB7903F01F0303F1604303F56443BA795201D2B21A700837BD4680BD80B500AF022001214FF4804241F6FF7300F068FA03461A460A4B1A7059
:400F80000C20012141F6FF7241F6FF7300F090FA03461A46054B1A70054800F0BDFA002000F0CCFA80BD00BFB481FF1FB581FF1FB511000080B582B000AF444B1B781846CC
:400FC000FFF7BEFD424B1B781846FFF7B9FD414B1B78FF2B05D1FFF7C1FE03461A463D4B1A703C4B1A783B4B1B7810460C211A460623FFF7E1FE374B1A78374B9BB210463B
:4010000045F6A0311A46FFF717FF304B1A78314B1B7810461946FFF733FE304B1B78FF2B05D1FFF79BFE03461A462C4B1A702B4B1A782A4B1B7810460C211A460723FFF7E6
:40104000BBFE264B1978244B9AB2254B9BB2084611461A46FFF7F0FE1D4B1A781F4B1B7810461946FFF70CFE184B1B7818460121FFF720FD164B1B7818460121FFF71AFD9E
:40108000FFF7E2FC0346FB71164A164B1B78DBB243F02003DBB21370FB791846FFF7D8FC114A114B1B78DBB243F00103DBB213700D4A0D4B1B78DBB243F00203DBB213708F
:4010C0000A4B01221A600837BD4680BDB481FF1FB581FF1F2881FF1FB881FF1F2981FF1FD081FF1F976500407764004080E200E080B500AF074B1B68002B04D1FFF732FF0A
:40110000044B01221A60FFF755FF00F059F8024B1B7880BDB081FF1F6465004080B500AF00F0FCF880BD00BF80B485B000AF0346FB71084B1B78FB73FB7B002B02D1FB79F6
:40114000002BF6D0FB7B18461437BD465DF8047B704700BF6465004080B483B000AF0346FB80FB88C3F10503084A32F813309AB2074B1B889BB29BB2D31A9BB29BB21BB202
:4011800018460C37BD465DF8047B7047D081FF1FE481FF1F80B582B000AF0346FB80B7F90630184600F00AF9034618460837BD4680BD00BF80B400AFBD465DF8047B7047A7
:4011C00080B500AF054B1B78002B04D100F008F8024B01221A7000F019F880BDC481FF1F80B500AF074A074B1B78DBB243F00603DBB213700C2000F069F8034B00221A8023
:4012000080BD00BF01590040DE81FF1F80B582B000AFFFF719FC0346FB71244A234B1B78DBB243F00103DBB21370214A204B1B78DBB243F00103DBB213701E4B1B78BB711D
:40124000BB7943F00203BB71BB7943F00103BB71184ABB791370184B18221A70174A174B1B78DBB243F04003DBB21370134A134B1B78DBB223F00303DBB21370104BC8224D
:401280001A70104B02221A700F4A0F4B1B78DBB243F00803DBB213700A20FFF707FEFB791846FFF7D5FB0837BD4680BDAB430040BB430040035900400659004005590040F9
:4012C0000059004014460040275B004080B584B000AF0346FB71FB790A2B07D00C2B02D0082B06D008E0C223FB730BE08223FB7308E04223FB7305E0C223FB730020FFF758
:40130000C9FD00BF044AFB7B1370FB79184600F015F81037BD4680BD0259004080B400AF054A054B1B78DBB243F00103DBB21370BD465DF8047B70470059004080B584B077
:4013400000AF0346FB71FB790A2B08D00C2B02D0082B08D00BE04FF48053FB600DE04FF48063FB6009E04FF48073FB6005E00023FB600020FFF78EFD00BF0C4B00221A805A
:40138000FB6842F2107202FB03F303F6A113084A82FB03121212DB17D31A064A1360064B00221A801037BD4680BD00BFDC81FF1F1F164B0DE081FF1FE481FF1F80B485B004
:4013C00000AF0346FB801D4B1B889BB2002B09D01A4B1B889BB21AB213469B0013445B00FB6002E0164B1B68FB60164B1B889BB2FA889BB2D31A9BB2FB80B7F9063042F2EC
:40140000107202FB03F2B7F90630002B04DDFB68D90F0B445B1004E0FB68D90F0B445B105B421A44FB6892FBF3F37B817B891BB218461437BD465DF8047B7047DC81FF1F08
:40144000E081FF1FDE81FF1F90B585B002AF0446084611461A462346FB710346BB710B46BB8013467B80114B01221A700F4B1878F979BA7900230093002301930123FFF7AD
:401480001DFC0A4B1978BA887B88084611461A46FFF7B8FB054B1B7818460221FFF782FB024B1B7818460C37BD4690BD2A81FF1F90B585B002AF0446084611461A462346E6
:4014C000FB710346BB710B46BB8013467B80114B00221A700F4B1878F979BA7900230093002301930023FFF7E9FB0A4B1978BA887B88084611461A46FFF784FB054B1B78A2
:4015000018460221FFF74EFB024B1B7818460C37BD4690BD2B81FF1F80B485B000AF7860054B1B68FB60FB6840337A681A601437BD465DF8047B704708ED00E080B483B0EB
:4015400000AF0346FB71054AFB795B01DBB213700C37BD465DF8047B704700BF00E400E080B500AF154B41221A70154BC1221A70144B08221A70144B0F221A70134B0022D9
:401580001A70134B4FF400421A600F200721FFF7C7FC0F200F49FFF79BFC0F4B00221A700E4B00221A700E4B00221A700D4B00221A700D4B00221A8080BD00BFD64900409D
:4015C000C8490040CA490040DB490040DC49004080E100E011170000F281FF1FEC81FF1FF481FF1FF381FF1FF081FF1F80B582B000AFFFF729FA0346FB710D4A0C4B1B7820
:40160000DBB243F00403DBB213700A4A094B1B78DBB243F00403DBB21370FB791846FFF717FA054B4FF400421A600837BD4680BDA5430040B543004000E100E080B500AF15
:40164000054B1B78002B04D1FFF78AFF024B01221A70FFF7CBFF80BDC581FF1F80B483B000AF0D4B4FF400421A600C4B1B78FB710A4B1B78DBB203F01003DAB2074B1A7007
:40168000074B4FF400421A60FB7918460C37BD465DF8047B704700BF80E100E0EC81FF1F00E100E080B483B000AF03463A60FB800B46BB800F4B4FF400421A603B68002BC3
:4016C00008D00D4A3B6813600C4AFB8813800C4ABB8813800B4B00221A700B4B00221A700A4B4FF400421A600C37BD465DF8047B704700BF80E100E0E881FF1FEE81FF1FD0
:40170000F081FF1FF481FF1FF381FF1F00E100E080B400AF864B1B78DAB2864B1A70854B1B7803F00803002B42D0834B1B78DBB203F00103002B24D07F4A804B1B68804984
:401740000978C9B20B441B78DBB21370784B14221A707B4B1B78DAB27A4B1A70794B1B78DBB20133DAB2774B1A70774B1B78DBB243F01103DAB2744B1A70744B08221A7063
:40178000B7E06B4B10221A706F4B1B78DBB243F01203DAB26C4B1A706C4B01221A706C4A6B4B1B78DBB243F01003DBB21370A0E0604B1B7803F00103002B00F09A80634B53
:4017C0001B78DBB2042B24D0082B48D0012B40F08380594B1B78DAB25E4B1A705D4B1B789AB25D4B1B889BB29A420ED2504B10221A70584B1A78524B1A70564B1A78514BA9
:401800001A70524B04221A7073E0494B00221A706FE04C4B1B78DBB29AB2504B1B889BB29A4218D2444B1B78DAB24A4B1A70404B10221A70414B1B68424A1278D2B2134487
:40184000444A12781A703F4B1B78DBB20133DAB23C4B1A704DE0364B00221A7049E0354B1B7803F00203002B24D1364B1B78DBB29AB2394B1B889BB29A4214D22E4A2F4B88
:401880001B6830490978C9B20B441B78DBB21370274B04221A702B4B1B78DBB20133DAB2284B1A7025E0244BFF221A70204B04221A701EE0204BFF221A701D4B00221A7067
:4018C000214B1B78DBB223F01003DAB21E4B1A701E4B00221A700CE01C4B00221A70184B00221A70174B00221A70114B00221A7000BF0F4B1B78DBB203F02003002B12D022
:40190000114B1B78DBB223F01003DAB20E4B1A700E4B00221A700E4A0D4B1B78DBB223F01003DBB21370BD465DF8047B704700BFD7490040C681FF1FD8490040E881FF1F91
:40194000F481FF1FF381FF1FEC81FF1FF281FF1FD6490040C781FF1FEE81FF1FF081FF1F014B1868704700BF8C81FF1F0E4B70B51E460E4C0025E41AA410A54204D056F8BC
:40198000253098470135F8E700F0C4FC084B094C1E46E41AA4100025A54204D056F8253098470135F8E770BD2023000020230000202300002823000010B5431E0A44914271
:4019C00004D011F8014B03F8014FF8E710BD03460244934202D003F8011BFAE7704700000EB400B54FF402719CB0ADF814106FF00041049107914FF6FF711DABADF816108B
:401A0000084953F8042B02900690086802A9019300F064F8029B00221A701CB05DF804EB03B070478C81FF1F2DE9F0478E688246B3420C469046994640D38A8912F4906F98
:401A40003AD02568096902236F1A656905EB450595FBF3F57B1C4B449D4238BF1D4653050FD5294600F030FB064698B121693A46FFF7A2FFA38923F4906343F08003A381C4
:401A800013E02A4600F076FB064670B95046216900F0D6FA0C23CAF80030A3894FF0FF3043F04003A381BDE8F08726613E4426604E466561ED1BA560B14500D24E463246D2
:401AC0002068414600F0A0FAA36800209B1BA36023681E442660BDE8F08700002DE9F0439DB003938B8906461C060D4690460CD50B6953B9402100F0E7FA2860286110B996
:401B00000C233360CCE040236B610023099320238DF8293030238DF82A3043461C4613F8012B1AB9B4EB08090FD002E0252AF5D1F8E73046294642464B46FFF775FF013003
:401B400000F0A980099B4B4409932378002B00F0A28000234FF0FF3204930793059206938DF853301A9304F101084446DFF8489121784846052200F039FA08F10108049BB2
:401B800030B1C9EB00000122824013430493ECE7D80644BF20228DF85320190744BF2B228DF8532022782A2A02D0079923460EE0039A0134111D12680391002ABBBF52426B
:401BC00043F0020307920792B8BF04930AE01C4622780133303A092A03D80A2000FB0121F5E7079123782E2B1AD163782A2B0AD1039B02341A1D1B680392002BB8BF4FF032
:401C0000FF3305930CE0611C00220C4623780131303B092B03D80A2000FB0232F5E70592DFF8988021784046032200F0DFF938B1049AC8EB0000402383401343049301346D
:401C400021781A48062204F101088DF8281000F0CDF988B1164B33B9039B073323F007030833039313E003AB0093304604A92A46104BAFF3008007E003AB0093304604A9F5
:401C80002A460C4B00F092F8421C074603D0099B3B44099341E7AB895B0601D4099801E04FF0FF301DB0BDE8F08300BFE822000000000000291A0000DE220000E42200002D
:401CC0002DE9F84391461F468A680B6906469342B8BF1346C9F8003091F843200C46DDF8208012B10133C9F800302368990642BFD9F800300233C9F80030256815F0060585
:401D00001CD094F843302268003318BF012392061FD5E118302081F843005A1C94F845102244023382F8431013E03046394604F119020123C047013007D00135E368D9F833
:401D400000209B1A9D42F0DBDBE74FF0FF30BDE8F8833046394604F14302C0470130F4D02268D9F80050E36802F00602042A08BF5D1B2269A3680CBF25EAE5750025934248
:401D8000C4BF9B1AED184FF00009A9450ADA3046394604F11A020123C0470130D5D009F10109F2E70020BDE8F88300002DE9FF410C461746227E98466E2A06460A9B01F1AA
:401DC000430100F0B08012D8632A23D00AD8002A00F0BD80582A40F0CC8084F84520DFF804E257E0642A1ED0692A1CD0C1E0732A00F0B18009D86F2A2ED0702A40F0B98034
:401E0000226842F0200222603FE0752A24D0782A3BD0AEE01A6804F14205111D1960136884F84230A9E020681A6810F0800F02D0101D186008E010F0400F02F10400186048
:401E400002D0B2F9003000E01368002B3EDA2D225B4284F8432039E020681A6810F0800F02D0101D186007E010F0400F02F10400186001D0138800E01368227EDFF864E1FB
:401E80006F2A0CBF08220A221CE07822DFF858E184F845202268186812F0800F00F104051D6003D1550601D5038800E00368D00744BF42F0200222601BB9226822F02002B2
:401EC00022601022002084F8430002E0DFF814E10A226568002DA8BF2068A560A4BF20F00400206003B965B10D46B3FBF2F002FB10331EF8033005F8013D03460028F4D1E1
:401F000000E00D46082A0BD12368DA0708D5236962689A42DEBF302305F8013C05F1FF35491B21612EE025681A6815F0800F606903D0151D1D60136808E015F0400F02F105
:401F400004051D60136801D0188000E01860002323610D4616E01A68111D1960156800212846626800F042F808B1401B6060636804E004F1420584F842200123236100231E
:401F800084F84330CDF800803046214603AA3B46FFF796FE013002D14FF0FF301FE0304639462A462369C0470130F5D023689B0705D4E068039B9842B8BF18460FE000254A
:401FC000E368039A9B1A9D42F3DA3046394604F119020123C0470130DED00135F0E704B0BDE8F081EF2200000023000010B5C9B202449042034605D01C7801308C42F8D1AC
:40200000184610BD002010BD814210B501EB020301D3421E0BE09842FBD28118D21AD34204D013F8014D01F8014DF8E710BD994204D011F8014B02F8014FF8E710BD000095
:4020400030B500293CD051F8042C0B1F1D49002AB8BF9B180A680C4612B95A600B6030BD93420DD219685818904201BF5A5852181A60426823605A6030BD994203D80A46A1
:4020800051680029F9D1146815199D420AD11B682344D0188842136012D10868034413604B680CE002D90C23036030BD1C681819884201BF0868496800191860596053609E
:4020C00030BD00BFCC81FF1F70B5CC1C24F0030408340C2C38BF0C24002C064603DA0C233360002070BD8C42F9D3204A136810461946A1B10A68121B0ED40B2A03D90A6020
:402100008B188C501FE08B420BBF5A684A6802605A6018BF0B4616E00B464968E9E7144D2B681BB9304600F04BF828603046214600F046F8421C0346D1D0C51C25F00305C0
:4021400085420AD11C6003F10B001A1D20F00700821A0AD05142995070BD3046E91A00F02FF80130BBD02B46ECE770BDCC81FF1FC881FF1FF8B5074615460E4621B911466C
:40218000BDE8F840FFF7A0BF1AB9FFF759FF2846F8BD00F025F8A8420ED238462946FFF793FF044650B131462A46FFF705FC38463146FFF745FF01E03046F8BD2046F8BDDE
:4021C00038B5064C0023054608462360FEF798F8431C02D1236803B12B6038BDF881FF1F51F8040C0028BEBF091851F8043CC0180438704700000000434F4D20506F72743D
:40220000204F70656E0000004F766572616C6C3A20256C64206D560D0A00000050726F64756374696F6E3A20256C64206D560D0A000000004670756D703A20256C64206D7A
:40224000560D0A0046696E6A3A20256C64206D560D0A000049676E6974696F6E3A20256C64206D560D0A0000526566563A20256C64206D560D0A0A0A0A0A0A0D000000009C
:40228000456D756C6174656420446174613A202578200D0A00000000C84900401900105100401000305100404000F051004010000000014000100014014000080040014049
:4022C000000A004C0140000200500140200000006052004014080048060000004300232D302B2000686C4C0065666745464700303132333435363738394142434445460064
:402300003031323334353637383961626364656600000000F8B500BFF8BC08BC9E4670474D000000E9030000F8B500BFF8BC08BC9E46704729000000482300000881FF1FC9
:402340008800000070000000000000000082FF1F807F00000300000000366E01C05D0000180000000000E02EFFFFFFFF0000000000000000000000000000000000000000DF
:40238000000000000000000000000000DC2200000000000000000000000000000000000000000000000000000000000000000000000000000000000000000000000000001F
:4023C0000000000000000000000000002C81FF1F00000000000000000000000000000000000000000000000000000000000000000000000000000000000000000000000012
:40240000000000000000000000000000000000000000000000000000000000000000000000000000000000000000000000000000000000000000000000000000000000009C
:40244000000000000000000000000000000000000000000000000000000000000000000000000000000000000000000000000000000000000000000000000000000000005C
:40248000000000000000000000000000000000000000000000000000000000000000000000000000000000000000000000000000000000000000000000000000000000001C
:4024C00000000000000000000000000000000000000000000000000000000000000000000000000000000000000000000000000000000000000000000000000000000000DC
:020000040003F7
:0200000480007A
:400000000149004002520040015B0040026400400265004018000140290101402B020140370301403C0401404D050140360601404A0701400408014005090140010B014000
:40004000010D0140010F01403D140140531501402E1601404D1701400E1901402C1A01404A1B0140084001400D4101400C4201400443014005440140044501400746014015
:400080000947014004480140064901400D4C01400C4D01400850014003510140D640002601252784840F863887058B720604070109040F101B081F04210222012501260231
:4000C00029082F023001311F3202360439023F01580459045F01D804D904DF010140022404800524070408510A400B800E400F0811141242151218821905210122022840CA
:4001000029452A442B042D102F4030A132203304345035243602386039163A083F088202C0E7C25BC45FCAAFCCFFCE4FE00100020201040308030C030D0B0F041001120206
:40014000130F150F180119091A021B06210F2203250F2D072F08310133043402350236013708580459045F01850386028B019503A102A201B002B201B703B980BF40D804BB
:40018000D904DF0100080202030104A2050408500A600E481082114012041701182019081A601B051FA021402504278A29242B412C402D082E40304031083212341035245B
:4001C0003602380439603D408B80908294609640984099049A049D609E08A202A4A0A801A940AB04C0F5C25FC41BCADFCCEFCE1EE620040105030606071C0B150D030F0425
:40020000100C120315031603173418101B281F20212A22082314260C28012A0E33383410350F360F3A883B283E104001460449FF4A074BFF4C404D204EF04F0550085401D7
:40024000580459045A045B045C115D115F01604061A86240632082018A019401A401AE01B001BE01D804D904DF010024030804A005040640080109200B280C020D080E0A3D
:4002800012A81489160217081A041B481E4020042108220823082A022B402C082D80310832A0332034803524360138243A403B403F08414049204A044C034D805010511068
:4002C00052805310581059015A447C087E1083809082918092209444952099049D609E08A305A4A6A508A604A740AF20B38AB504C0F4C2FEC4FECA31CCFECE4ED008D60FE9
:40030000EAA0EEC05418580459045B045D105F0182208450860C89018A038E20901C92429480984C9A11A010A101A409A610A814B101B21FB4C0B620B820B902BE40BF01B5
:40034000C026C103C50EC60CC70BC815C9FFCAFFCBFFCEF0CF44D00CD203D302D804D904DA04DB04DC01DD01DF01E6C0EA40EB020084038804020524070608210B200F4809
:40038000100812A0158019801B282102280829092B012E0232123304348835243603388039103F48402441084B28500852405F01659069506A10788079807B0183018D01BF
:4003C00090869220932094409708980199049B809C809D609E48A010A108A2A0A305A4A4A601A720A848B010B340B521C0FFC25EC48ECA8FCCF7CE5CD006D204D680D830CC
:40040000E201EE0439203F1059045F0124048001A110E640EE04A110A11081100202042008200E0112101501160418011C2020202303260829042A082E103003322033022C
:4004400034103501360C37043E543F40404641054203440145C047E0482249FF4AFF4BFF4C624DA04EF04F41500C54015804590C5A045B0C5C095D015F0166406702691062
:400480006A306B106D106E106F12D608D804D904DB04DD90DF0100200240032204800524088009200A600C010F081026110215841744182119111B02212822802308290178
:4004C0002B082C012D042F013108352437403F4840A148484BA0500259805F806640794080188101821084808580870988248E20908091C0924093C29720982099249B8474
:400500009C849D109F01A010A32CA440A501A6A0A820AB80AD20B301B720C0EFC25FC4AFCA55CC72CE50D00BD20CD618D810DE08E004E203E607E810EA01EE02580459043F
:400540005F0183088408850889208A048B108C188F02901C9104926196239701983C9A429B049C679D809E189F40A102A47FA501A804A940AB80AC10AD10AF20B040B1FFD3
:40058000B41FB638B802BA20BF01D602D73DD804D904DB0CDC01DF0102280301048205240740088009010A040B200F0810051308158017041A441BA0204029202A0A2B03D3
:4005C0002F0231043251352436023742388239143B423F485A10610268A469146A827140720A79408104828283048401860888108B488C408E50908291C0923094409740CD
:4006000099049B809D709E089F02A010A102A30DA4E4A602A780B401B508B602C0F7C24FC4A7CA1FCCFFCE5FD604D801DE08E20BE4058130874189018C208E808F089401BE
:400640009902A110B404B502E050E494E8402B013101580459045F01801082608504887E8B738D0891639521987E990C9D0F9F70A048A17FA214A424A50CA619A773A942C9
:40068000AC02AD73AF0CB070B11CB202B40CB50FB601B760BB22D602D710D804D904DB04DC11DD10DF010010012205010704081109100E08102012801340154816801D011E
:4006C0001E141F4123402401252026202740281129422B082C082D092F02302032803501375838103B403C803E185E406D406E086F047440761877118250834185208630F1
:400700008702880889048A848B088E089101940197C0996A9F01A020A110A280A308AF40B140B508C05AC24AC4BDCAFFCCFCCE7CD610E210E6A0E8D0EA0113011680308003
:400740003B023E80C430CC10CE60538056405B205F40630265018B2093019702A480D4E0D660D8803E10830193019702A480AF80B240B341B501CE20E080EE109610A480F0
:40078000AB01EE20101014207502C40CDE04501098309D02D4041B042608942098309D02C608C80144028E08942098309D02A208AB04D004E60224089610A480C820848076
:4007C000A480AA10B404E210EA8012101320162078107C20810298309C029D02B410C40EDE03EC0210807220761088809A30AB20B402C408DC01DE04E601E8080003080102
:400800000A03100311011A031B011C03000303C0100A0000903000007000000000000000003F3F00B0004080B000B000003000000002020002000000000100000000000099
:400840000000000000000000000000000000000000000000000000000000000000000000000000000000000000000000000000000000000000000000000000000000000078
:400880000000000000000000000000000000000000000000000000000000000000000000000000000000000000000000000000000000000000000000000000000000000038
:4008C00000000000000000000000000000000000000000000000000000000000000000000000000000000000000000000000000000000000000000000000000000000000F8
:4009000000000000000000000000000000000000000000000000000000000000000000000000000000000000000000000000000000000000000000000000000000000000B7
:0200000490006A
:0400000000004005B7
:0200000490105A
:04000000BC90ACAF55
:0200000490303A
:02000000DDF829
:0200000490402A
:4000000000000000000000000000000000000000000000000000000000000000000000000000000000000000000000000000000000000000000000000000000000000000C0
:400040000000000000000000000000000000000000000000000000000000000000000000000000000000000000000000000000000000000000000000000000000000000080
:400080000000000000000000000000000000000000000000000000000000000000000000000000000000000000000000000000000000000000000000000000000000000040
:4000C0000000000000000000000000000000000000000000000000000000000000000000000000000000000000000000000000000000000000000000000000000000000000
:0200000490501A
:0C00000000012E16106900012E25EE6193
:00000001FF