:400000000080002011000000950200009502000080B500AF024A034B1B68136000F03EF9BC760040FA46004010B5054C237833B9044B13B10448AFF300800123237010BDB2
:400040003081FF1F00000000681F0000084B10B51BB108480849AFF300800848036803B910BD074B002BFBD0BDE81040184700BF00000000681F00003481FF1F0881FF1FE3
:400080000000000080B59CB000AF62B601F014F801F010FD00F0DEFB01F0B4FA07F11003142001211A4601F0E1FA002387F86B30002387F86A30002387F86930002387F8B2
:4000C000683001F00FF801F00BFD714800F05CFC00F01EFC034687F8673097F86730582B21D0582B0BDC432B15D0432B02DC002B21D021E0452B1AD0532B10D01CE0652B09
:4001000015D0652B02DC632B05D015E0732B06D0782B08D010E0012387F86A300CE0012387F86B3008E0002387F86B3004E0012387F8693000E000BF012000F0D9FF0346B8
:40014000002B00F0A3800023FB660023FB6634E0FB6E9BB2184600F0E3FF0346A7F86430B7F96430184600F0F9FF0246FB6E9B0007F170010B4443F8342CFB6E9B0007F19E
:400180007002134453F8343CD9B207F13002FB6E13440A461A70FB6E9B0007F17002134453F8343C1B12D9B207F12402FB6E13440A461A70FB6E0133FB66FB6E052BC7DD41
:4001C0000623FB6636E0FB6E9BB2063B9BB2184601F08CFC0346A7F86430B7F96430184601F0A2FC0246FB6E9B0007F170010B4443F8342CFB6E9B0007F17002134453F8E8
:40020000343CD9B207F13002FB6E13440A461A70FB6E9B0007F17002134453F8343C1B12D9B207F12402FB6E13440A461A70FB6E0133FB66FB6E092BC5DD01F0F3F90346AC
:4002400003F01003002B21D10023FB661BE0FB6E5B0007F13001FA6E0A44127807F170010B4403F8602CFB6E5B00013307F12401FA6E0A44127807F170010B4403F8602CDC
:40028000FB6E0133FB66FB6E092BE0DD20E700BF6C1F000080B400AFFEE700BF80B586B000AF224B7B61224B3B61204B7B6135E03B691B68FB603B695B68BB603B699B689B
:4002C0003B6000237B600CE0FB681A68BB681A60BB680433BB60FB680433FB607B6804337B607A683B689A42EED13B69DB683B6000237B6008E0BB6800221A60BB680433F7
:40030000BB607B6804337B607A683B689A42F2D13B6910333B617B69013B7B617B69002BC6D101F0E7FDFFF7ADFEFEE701000000EC1F000080B582B000AF184B184A1A60A8
:40034000184A184B1B6843F40073136000237B600FE07B68032B04D8134A7B6852F8233000E0124B12497A6841F822307B6801337B607B682F2BECD90E4B1B78DAB20E4B97
:400380001A700E4B0A4A1A6000F07CF900F048FB0B4B00221A600837BD4680BD0CED00E00004FA0514ED00E000000000950200000080FF1FBC7600400481FF1F08ED00E0A7
:4003C0000081FF1F80B582B000AF78603960786800213A6801F0BFFD0837BD4680BD00BF80B584B000AFF860B9607A60F868B9687A6801F0A5FD1037BD4680BD80B483B002
:4004000000AF0346FB71FEE780B487B000AF7860396000233B6100237B6127E07B699B007A6813441B68BB60BB68FB73BB6823F0FF03BB6014E03B695B003A6813441B786A
:400440001A46BB68134419463B695B003A6813445B780B703B6901333B61FB7B013BFB73FB7B002BE7D17B6901337B617B692A2BD4D91C37BD465DF8047B704780B582B0EE
:4004800000AF364B10221A80354B18221A70354B12221A80344B18221A70344B19221A80334B18221A70334B02221A704FF0402308221A70304B03221A70304B304A1278AA
:4004C000D2B21A702F4B08221A802F4B41F251221A800023FB7019237B6014E0FB785B00DAB22A4B1B78DBB203F00103DBB21343DBB203F00303FB704FF4F07000F080FA96
:400500007B68013B7B607B68002B02D0FB78032BE4D17B68002B02D10320FFF76FFF1C4B4FF480721A801A4B07221A70194B00221A70194B48221A70154B00221A70174BFF
:4005400002221A70164A164B1B78DBB243F00703DBB213700837BD4680BD00BF80400040824000408440004086400040884000408A4000400043004000420040A146004017
:400580000801004922420040204200402542004004400040064000400840004001400040A243004080B483B000AF264B1B78FB71254B1B78BB71254B1B787B71244AFB793E
:4005C00003F00703DBB21370224AFB791B09DBB213701D4ABB7943F00303DBB213701B4A7B7943F00303DBB213701B4B3F221A701A4B0F221A701A4B40221A70194B4022CC
:400600001A70194B40221A70184B40221A70184BF0221A70174B20221A70174BF0221A70164B20221A70094A7B791370064ABB791370134B44221A700C37BD465DF8047B00
:40064000704700BFCF010049F8460040F94600406E5800406F5800400D5100403D5100400159004003590040095900400B590040205B0040235B0040285B00402B5B0040F7
:400680007658004080B586B000AF72B6564A564B1B78DBB243F00403DBB213700023FB7513E0FA7D13465B0013445B004F4A13443B613B691A683B699B889BB21046194661
:4006C000FFF780FEFB7D0133FB75FB7D082BE8D90023FB751CE0FA7D13469B0013445B00434A1344FB60FB681B68BB60FB685B687B60FB681A7A5B7A1B0213437B807B88D4
:40070000B86879681A46FFF76BFEFB7D0133FB75FB7D012BDFD94FF090403649FFF774FE35480421FFF74EFE344835490422FFF757FE344834490422FFF752FE33483449DF
:400740000422FFF74DFE334A324B1B78DBB243F00203DBB21370304A2F4B1B78DBB243F00203DBB213702D4A2C4B1B78DBB243F04003DBB213702A4A294B1B78DBB243F085
:400780001003DBB21370274827490822FFF728FE264827490A22FFF723FE264826490822FFF71EFE254826490822FFF719FE254A244B1B78DBB243F00803DBB21370224BEB
:4007C00061221A70FFF75AFE1F4B81221A701F4B01221A70FFF7E6FE1D4810490E22FFF7FFFD1837BD4680BDE84600407C1F0000B41F0000AC000048007600400876004063
:40080000580B0048107600405C0B004818760040600B00480350014013500140A0430040C243004002510040340B0048C05100403C0B004822510040480B0048325100406C
:40084000500B0048224300400048004004000840B043004080B500AF054B1B78002B04D100F008F8024B01221A7000F023F880BD4C81FF1F80B400AF094B72221A70094B9C
:4008800020221A70084B06221A70084B47221A70074B00221A70BD465DF8047B704700BF8A650040896400402D6400403D6400408A64004080B582B000AF00F0A9F80346AA
:4008C000FB71104A0F4B1B78DBB243F02003DBB213700D4A0C4B1B78DBB243F01003DBB213700A4A094B1B78DBB243F01003DBB2137000F069F8FB79184600F08DF8083739
:40090000BD4680BD9A650040996400409A64004080B483B000AF0023FB710C4B1B78BB71BB7903F02003002B09D0094B1B78FB71BB7903F01E03002B01D00023FB71FB791A
:4009400018460C37BD465DF8047B7047696400404965004080B483B000AF0346FB7100BF074B1B78DBB203F00403002BF8D1054AFB7913700C37BD465DF8047B704700BF8D
:400980006A6400404A64004080B584B000AF78600023FB810B4B1B78002B10D009E0FB897A6813441B781846FFF7D4FFFB890133FB81FB897A6813441B78002BEFD11037A2
:4009C000BD4680BD4C81FF1F80B400AF094A094B1B78DBB243F00403DBB21370064A064B1B78DBB243F00403DBB21370BD465DF8047B7047A2430040B243004000000000E5
:400A00000230800803D000BF01380046FCD17047EFF3108072B6704780F31088704700BF80B483B000AF134B7F221A70124B80221A707F23FB710CE0FB79DB0003F180436D
:400A400003F5F043FA79013AD2B21A70FB79013BFB71FB79002BEFD1FB79DB0003F1804303F5F04300221A700C37BD465DF8047B704700BF0D81FF1F0C81FF1F80B485B0E7
:400A800000AF03460A46FB711346BB710123FB60FB79172B2FD8BB79002B0ED0FB791A01184B1344FA791101164A0A441278D2B242F02002D2B21A700DE0FB791A01114BC0
:400AC0001344FA7911010F4A0A441278D2B222F02002D2B21A70FB791A010A4B1344FA791101084A0A441278D2B242F00102D2B21A700023FB60FB6818461437BD465DF890
:400B0000047B70471070004080B485B000AF0346FB710123FB60FB79172B1DD8FB791A01114B1344FA7911010F4A0A441279D2B242F00402D2B21A71FB791A010A4B1344C9
:400B4000FA791101084A0A441278D2B242F00102D2B21A700023FB60FB6818461437BD465DF8047B704700BF1070004080B485B000AF03460A46FB711346BB710123FB6047
:400B8000FB79172B18D8FB791A010F4B13441B78DBB223F00E03FB72FB791A010A4B1344BA7902F00702D2B25200D1B2FA7A0A43D2B21A700023FB60FB6818461437BD4680
:400BC0005DF8047B704700BF1070004080B485B000AF0346FB710B46BB8013467B800123FB60BB8841F6FF72934202D14FF40053BB807B8841F6FF72934202D14FF4005372
:400C00007B80FB79172B17D8FB79DB0003F1804303F5EC430433BB60BB68BA881A80FB79DB0003F1804303F5EC430633BB60BB687A881A800023FB60FB6818461437BD46C9
:400C40005DF8047B704700BF80B485B000AF03460A46FB711346BB710123FB60FB79172B07D8FB791A01064B1344BA795A720023FB60FB6818461437BD465DF8047B704726
:400C80001070004090B484B000AF0446084611461A462346FB710346BB710B467B7113463B710123FB60FB79172B34D8FB79DB0003F1804303F5EC43BA7902F07F02D1B2DB
:400CC0007A79D201D2B20A43D2B21A70FB79DB0003F1804303F5EC433A7E1201D1B23A7902F00F02D2B20A43D2B25A70FB79DB0003F1804303F5EC433A7F02F00F02D2B292
:400D00009A70FB79DB0003F1804303F5EC430022DA700023FB60FB6818461037BD4690BC704700BF80B582B000AFFF23FB71FFF76FFE0346BB71104B1B78182B12D90F4BD3
:400D40001B78FB710C4B1B78013BDAB20A4B1A70FB79DB0003F1804303F5F0431B78DAB2064B1A70BB791846FFF756FEFB7918460837BD4680BD00BF0C81FF1F0D81FF1F75
:400D800090B484B000AF0446084611461A462346FB710346BB800B46BB711346FB700123FB60FB795BB2002B23DBBB8823F47F6323F00F039BB2002B1BD1FB79DB0003F1F2
:400DC000804303F5F043BB60BB68BA881A80FB79DB0003F1804303F5F043BA799A70FB79DB0003F1804303F5F043FA78DA700023FB60FB6818461037BD4690BC704700BF45
:400E000080B485B000AF0346FB710B46BB8013467B800123FB60FB795BB2002B17DBFB79DB0003F1804303F5F0430433BB60BB68BA881A80FB79DB0003F1804303F5F04335
:400E40000633BB60BB687A881A800023FB60FB6818461437BD465DF8047B704780B483B000AF0346FB7101BE0C37BD465DF8047B704700BF80B582B000AF0346FB80FB88D0
:400E8000044A127802FB03F31846FFF7B9FD0837BD4680BD1C81FF1F80B584B000AF03463960FB710F4B1B68FB60FB791F2B02D90020FFF7D3FFFB7903F01F0310339B009D
:400EC000FA6813441B68BB60FB7903F01F0310339B00FA6813443A681A60BB6818461037BD4680BD08ED00E080B582B000AF03460A46FB711346BB71BB79072B02D9002081
:400F0000FFF7ACFFFB791F2B02D90020FFF7A6FFFB7903F01F0303F1604303F56443BA795201D2B21A700837BD4680BD80B500AF022001214FF4804241F6FF7300F068FAC2
:400F400003461A460A4B1A700C20012141F6FF7241F6FF7300F090FA03461A46054B1A70054800F0BDFA002000F0CCFA80BD00BF5481FF1F5581FF1F7D11000080B582B0AB
:400F800000AF444B1B781846FFF7BEFD424B1B781846FFF7B9FD414B1B78FF2B05D1FFF7C1FE03461A463D4B1A703C4B1A783B4B1B7810460C211A460623FFF7E1FE374B03
:400FC0001A78374B9BB2104645F6A0311A46FFF717FF304B1A78314B1B7810461946FFF733FE304B1B78FF2B05D1FFF79BFE03461A462C4B1A702B4B1A782A4B1B7810461D
:401000000C211A460723FFF7BBFE264B1978244B9AB2254B9BB2084611461A46FFF7F0FE1D4B1A781F4B1B7810461946FFF70CFE184B1B7818460121FFF720FD164B1B78BE
:4010400018460121FFF71AFDFFF7E2FC0346FB71164A164B1B78DBB243F02003DBB21370FB791846FFF7D8FC114A114B1B78DBB243F00103DBB213700D4A0D4B1B78DBB28A
:4010800043F00203DBB213700A4B01221A600837BD4680BD5481FF1F5581FF1F2481FF1F5881FF1F2581FF1F7C81FF1F9F6400407C64004080E200E080B500AF074B1B6899
:4010C000002B04D1FFF732FF044B01221A60FFF755FF00F059F8024B1B7880BD5081FF1F6865004080B500AF00F0FCF880BD00BF80B485B000AF0346FB71084B1B78FB7354
:40110000FB7B002B02D1FB79002BF6D0FB7B18461437BD465DF8047B704700BF6865004080B483B000AF0346FB80FB88C3F10503084A32F813309AB2074B1B889BB29BB2AA
:40114000D31A9BB29BB21BB218460C37BD465DF8047B70477C81FF1F9081FF1F80B582B000AF0346FB80B7F90630184600F00AF9034618460837BD4680BD00BF80B400AFC9
:40118000BD465DF8047B704780B500AF054B1B78002B04D100F008F8024B01221A7000F019F880BD6481FF1F80B500AF074A074B1B78DBB243F00603DBB213700C2000F0A0
:4011C00069F8034B00221A8080BD00BF015900408A81FF1F80B582B000AFFFF719FC0346FB71244A234B1B78DBB243F00103DBB21370214A204B1B78DBB243F00103DBB2F2
:4012000013701E4B1B78BB71BB7943F00203BB71BB7943F00103BB71184ABB791370184B18221A70174A174B1B78DBB243F04003DBB21370134A134B1B78DBB223F0030337
:40124000DBB21370104BC8221A70104B02221A700F4A0F4B1B78DBB243F00803DBB213700A20FFF707FEFB791846FFF7D5FB0837BD4680BDAB430040BB4300400359004021
:4012800006590040055900400059004014460040275B004080B584B000AF0346FB71FB790A2B07D00C2B02D0082B06D008E0C223FB730BE08223FB7308E04223FB7305E0C4
:4012C000C223FB730020FFF7C9FD00BF044AFB7B1370FB79184600F015F81037BD4680BD0259004080B400AF054A054B1B78DBB243F00103DBB21370BD465DF8047B704751
:401300000059004080B584B000AF0346FB71FB790A2B08D00C2B02D0082B08D00BE04FF48053FB600DE04FF48063FB6009E04FF48073FB6005E00023FB600020FFF78EFD6A
:4013400000BF0C4B00221A80FB6842F2107202FB03F303F6A113084A82FB03121212DB17D31A064A1360064B00221A801037BD4680BD00BF8881FF1F1F164B0D8C81FF1F06
:401380009081FF1F80B485B000AF0346FB801D4B1B889BB2002B09D01A4B1B889BB21AB213469B0013445B00FB6002E0164B1B68FB60164B1B889BB2FA889BB2D31A9BB229
:4013C000FB80B7F9063042F2107202FB03F2B7F90630002B04DDFB68D90F0B445B1004E0FB68D90F0B445B105B421A44FB6892FBF3F37B817B891BB218461437BD465DF865
:40140000047B70478881FF1F8C81FF1F8A81FF1F90B585B002AF0446084611461A462346FB710346BB710B46BB8013467B80114B01221A700F4B1878F979BA790023009309
:40144000002301930123FFF71DFC0A4B1978BA887B88084611461A46FFF7B8FB054B1B7818460221FFF782FB024B1B7818460C37BD4690BD2681FF1F90B585B002AF0446C7
:40148000084611461A462346FB710346BB710B46BB8013467B80114B00221A700F4B1878F979BA7900230093002301930023FFF7E9FB0A4B1978BA887B88084611461A46CC
:4014C000FFF784FB054B1B7818460221FFF74EFB024B1B7818460C37BD4690BD2781FF1F80B485B000AF7860054B1B68FB60FB6840337A681A601437BD465DF8047B704714
:4015000008ED00E080B483B000AF0346FB71054AFB795B01DBB213700C37BD465DF8047B704700BF00E400E080B500AF154B41221A70154BC1221A70144B08221A70144B18
:401540000F221A70134B00221A70134B4FF400421A600F200721FFF7C7FC0F200F49FFF79BFC0F4B00221A700E4B00221A700E4B00221A700D4B00221A700D4B00221A80FD
:4015800080BD00BFD6490040C8490040CA490040DB490040DC49004080E100E0D91600009E81FF1F9881FF1FA081FF1F9F81FF1F9C81FF1F80B582B000AFFFF729FA03468F
:4015C000FB710D4A0C4B1B78DBB243F00403DBB213700A4A094B1B78DBB243F00403DBB21370FB791846FFF717FA054B4FF400421A600837BD4680BDA5430040B54300404E
:4016000000E100E080B500AF054B1B78002B04D1FFF78AFF024B01221A70FFF7CBFF80BD6581FF1F80B483B000AF0D4B4FF400421A600C4B1B78FB710A4B1B78DBB203F07D
:401640001003DAB2074B1A70074B4FF400421A60FB7918460C37BD465DF8047B704700BF80E100E09881FF1F00E100E080B483B000AF03463A60FB800B46BB800F4B4FF466
:4016800000421A603B68002B08D00D4A3B6813600C4AFB8813800C4ABB8813800B4B00221A700B4B00221A700A4B4FF400421A600C37BD465DF8047B704700BF80E100E09A
:4016C0009481FF1F9A81FF1F9C81FF1FA081FF1F9F81FF1F00E100E080B400AF864B1B78DAB2864B1A70854B1B7803F00803002B42D0834B1B78DBB203F00103002B24D035
:401700007F4A804B1B6880490978C9B20B441B78DBB21370784B14221A707B4B1B78DAB27A4B1A70794B1B78DBB20133DAB2774B1A70774B1B78DBB243F01103DAB2744BC0
:401740001A70744B08221A70B7E06B4B10221A706F4B1B78DBB243F01203DAB26C4B1A706C4B01221A706C4A6B4B1B78DBB243F01003DBB21370A0E0604B1B7803F0010379
:40178000002B00F09A80634B1B78DBB2042B24D0082B48D0012B40F08380594B1B78DAB25E4B1A705D4B1B789AB25D4B1B889BB29A420ED2504B10221A70584B1A78524B5F
:4017C0001A70564B1A78514B1A70524B04221A7073E0494B00221A706FE04C4B1B78DBB29AB2504B1B889BB29A4218D2444B1B78DAB24A4B1A70404B10221A70414B1B6860
:40180000424A1278D2B21344444A12781A703F4B1B78DBB20133DAB23C4B1A704DE0364B00221A7049E0354B1B7803F00203002B24D1364B1B78DBB29AB2394B1B889BB28B
:401840009A4214D22E4A2F4B1B6830490978C9B20B441B78DBB21370274B04221A702B4B1B78DBB20133DAB2284B1A7025E0244BFF221A70204B04221A701EE0204BFF2291
:401880001A701D4B00221A70214B1B78DBB223F01003DAB21E4B1A701E4B00221A700CE01C4B00221A70184B00221A70174B00221A70114B00221A7000BF0F4B1B78DBB2E7
:4018C00003F02003002B12D0114B1B78DBB223F01003DAB20E4B1A700E4B00221A700E4A0D4B1B78DBB223F01003DBB21370BD465DF8047B704700BFD74900406681FF1FF7
:40190000D84900409481FF1FA081FF1F9F81FF1F9881FF1F9E81FF1FD64900406781FF1F9A81FF1F9C81FF1F80B500AF022001214FF4804241F6FF7300F050FA03461A4690
:401940000A4B1A700820012141F6FF7241F6FF7300F078FA03461A46054B1A70054800F0A5FA012000F0B4FA80BD00BF6C81FF1F6D81FF1F491B000080B582B000AF444B51
:401980001B781846FFF7C0F8424B1B781846FFF7BBF8414B1B78FF2B05D1FFF7C3F903461A463D4B1A703C4B1A783B4B1B78104608211A460623FFF7E3F9374B1A78374B33
:4019C0009BB2104645F6A2311A46FFF719FA304B1A78314B1B7810461946FFF735F9304B1B78FF2B05D1FFF79DF903461A462C4B1A702B4B1A782A4B1B78104608211A46A5
:401A00000723FFF7BDF9264B1978244B9AB2254B9BB2084611461A46FFF7F2F91D4B1A781F4B1B7810461946FFF70EF9184B1B7818460121FFF722F8164B1B7818460121CD
:401A4000FFF71CF8FEF7E4FF0346FB71164A164B1B78DBB243F02003DBB21370FB791846FEF7DAFF114A114B1B78DBB243F00103DBB213700D4A0D4B1B78DBB243F00203C3
:401A8000DBB213700A4B02221A600837BD4680BD6C81FF1F6D81FF1F2881FF1F7081FF1F2981FF1FA481FF1F946400407364004080E200E080B500AF074B1B68002B04D162
:401AC000FFF732FF044B01221A60FFF755FF00F041F8024B1B7880BD6881FF1F6B64004080B500AF00F0E4F880BD00BF80B483B000AF0346FB80FB88C3F10303084A32F8EE
:401B000013309AB2074B1B889BB29BB2D31A9BB29BB21BB218460C37BD465DF8047B7047A481FF1FAC81FF1F80B582B000AF0346FB80B7F90630184600F00AF903461846BE
:401B40000837BD4680BD00BF80B400AFBD465DF8047B704780B500AF054B1B78002B04D100F008F8024B01221A7000F019F880BD7881FF1F80B500AF074A074B1B78DBB209
:401B800043F00603DBB213700C2000F069F8034B00221A8080BD00BF09590040B481FF1F80B582B000AFFEF733FF0346FB71244A234B1B78DBB243F00203DBB21370214AC0
:401BC000204B1B78DBB243F00203DBB213701E4B1B78BB71BB7943F00203BB71BB7943F00103BB71184ABB791370184B18221A70174A174B1B78DBB243F04003DBB2137012
:401C0000134A134B1B78DBB223F00303DBB21370104BC8221A70104B02221A700F4A0F4B1B78DBB243F00803DBB213700A20FFF721F9FB791846FEF7EFFE0837BD4680BD3A
:401C4000AB430040BB4300400B5900400E5900400D59004008590040164600402F5B004080B584B000AF0346FB71FB790A2B07D00C2B02D0082B06D008E0C223FB730BE07B
:401C80008223FB7308E04223FB7305E0C223FB730020FFF7E3F800BF044AFB7B1370FB79184600F015F81037BD4680BD0A59004080B400AF054A054B1B78DBB243F0010355
:401CC000DBB21370BD465DF8047B70470859004080B584B000AF0346FB71FB790A2B08D00C2B02D0082B08D00BE04FF48053FB600DE04FF48063FB6009E04FF48073FB60FF
:401D000005E00023FB600020FFF7A8F800BF0C4B00221A80FB6842F2107202FB03F303F6A113084A82FB03121212DB17D31A064A1360064B00221A801037BD4680BD00BF02
:401D4000B681FF1F1F164B0DB081FF1FAC81FF1F80B485B000AF0346FB801D4B1B889BB2002B09D01A4B1B889BB21AB213469B0013445B00FB6002E0164B1B68FB60164B0B
:401D80001B889BB2FA889BB2D31A9BB2FB80B7F9063042F2107202FB03F2B7F90630002B04DDFB68D90F0B445B1004E0FB68D90F0B445B105B421A44FB6892FBF3F37B8174
:401DC0007B891BB218461437BD465DF8047B7047B681FF1FB081FF1FB481FF1F90B585B002AF0446084611461A462346FB710346BB710B46BB8013467B80114B03221A7035
:401E00000F4B1878F979BA7900230093002301930323FEF737FF0A4B1978BA887B88084611461A46FEF7D2FE054B1B7818460221FEF79CFE024B1B7818460C37BD4690BD9C
:401E40002A81FF1F90B585B002AF0446084611461A462346FB710346BB710B46BB8013467B80114B02221A700F4B1878F979BA7900230093002301930223FEF703FF0A4B7E
:401E80001978BA887B88084611461A46FEF79EFE054B1B7818460221FEF768FE024B1B7818460C37BD4690BD2B81FF1F80B485B000AF7860054B1B68FB60FB6844337A6882
:401EC0001A601437BD465DF8047B704708ED00E080B483B000AF0346FB71054AFB795B01DBB213700C37BD465DF8047B704700BF01E400E00E4B70B51E460E4C0025E41A0C
:401F0000A410A54204D056F8253098470135F8E700F05AF8084B094C1E46E41AA4100025A54204D056F8253098470135F8E770BDD41F0000D41F0000D41F0000DC1F000023
:401F400010B5431E0A44914204D011F8014B03F8014FF8E710BD03460244934202D003F8011BFAE77047000000000000434F4D20506F7274204F70656E000000C84900406E
:401F80001900105100401000405100403000F0510040100000000140001000140140000800400140000A004C014000021050014010000000605200401C0B00480600005095
:401FC0000140240B00481000F8B500BFF8BC08BC9E4670474D00000035030000F8B500BFF8BC08BC9E46704729000000002000000881FF1F280000008800000000000000F6
:4020000000000000807F00000F00000000366E01C05D0000180000000000E02EFFFFFFFFFFFFFFFF00000000000000000000000000000000000000000000000000000000B2
:402040000000000000000000000000000000000000000000000000000000000000000000000000000000000000000000000000000000000000000000000000000000000060
:402080000000000000000000000000000000000000000000000000000000000000000000000000000000000000000000000000000000000000000000000000000000000020
:4020C00000000000000000000000000000000000000000000000000000000000000000000000000000000000000000000000000000000000000000000000000000000000E0
:40210000000000000000000000000000000000000000000000000000000000000000000000000000000000000000000000000000000000000000000000000000000000009F
:020000040003F7
:0200000480007A
:400000000149004004520040025B004004640040016500400E0001402C01014023020140380301400E0401403D0501401F0601403A070140250801403E0901403F0A0140D8
:40004000470B01403A0C01404B0D01401F0E01402E0F0140201401403E150140181601403A1701404318014049190140321A0140481B01400B400140134101400B420140B8
:400080000343014005440140064501400E4601400347014005480140124901400C4C0140114D01400350014003510140D640001C011A180A190927842F84840389388A0F28
:4000C0008F058A72030107021A0122023002310132013302580459045F01D804D904DF010040021003080440050608400A600B080D080E08110212081440171019061A40E9
:400100001B0920402108231029042B012C402F083040321833103502360C38403A053B103C403F188B048D018E108F04C0B7C26FC45ACAAACCCECE7F020304030507070802
:400140000C020D090E010F061003110F1403170F18021A011C03210F290C2B032D0F310433083402350236013701580459045F01D203D302D804D904DB04DD10DF010040F0
:40018000010203180440050509080C800D080F88108012081FA024282640278029022B482C802F0A30C0320833123502360838403C403F0869406A60800482108B808E40C4
:4001C000904099069B109C40A108A30CA608AA05B10AB210B440B504C0BFC2F4C40ACAB5CCCFCE58E220E404E620E808EA05070133015602573D580459045B0C5C105D10F7
:400200005F01D804D904DC01DF01031A041005800D010E800F101090118012081448160122042310280829812A012C802F0A3040324434103618381039063C403D803F08F7
:400240005A206080680A69157180730479409040914092209B10A080A208A30CA702A901AA08AC80AF20B240B380B410C0C7C230C4DFCABDCC6ACE57D604D801DE08E60135
:40028000EAECEE40580459045C015F018204840888408A808B028E018F019010922096029A089C02A004A401A820AA10AC80AE40B2FFB301B702BA80BE04D804D904DC1264
:4002C000DF0100900184028004100581080809880ACC0D080E84100A1141130417021A101B402010210422402302280829812C802F0A32443618395A3C403F0879027AC044
:4003000086108A808C109040911592089304941096809C089D81A08AA180A208A30CA650A702A880C0DFC27FC41FCABDCC6ACE5FE608E820EE015608580459045B045C117E
:400340005D905F018013820484408A208C138E0C90409608980A9A149E15A240A640AA20AC03AE14B00FB240B420B610B808BA02BE50D418D804D904DB04DC02DD20DF01E8
:400380000008010203090508060207080A680B010E041010128A16201742188419401B082B542E042F40304031203508374239103B023E2259015C805F1060046180652023
:4003C000664085108A028F02911093139480962898C099029B019D609E40A080A120A206A346A710AA13B080C0EFC24FC4BFCAC7CCDCCEA5D631D83CE090E820040C067103
:400400000C100EAC1203140916D018DC1A221E20201022402414301F34E03A204045410245EB46E047C0482B49FF4AFF4BFF4EF04F44500C5401580459045A045B045C0210
:400440005D225F0166C06A406B028202880890109501960198019B03A404A804B010B203B301B408B502B604B880BE51D401D804D90CDB0EDC09DD10DF01032104A0064018
:4004800007010A680B010E6810A0140815041A401B201C801E26260427082B54304031203610370839103B023C023F014321482149015010520259415A145E807D087F020D
:4004C000844089028B208C02911493139480960898489C029D20A080A124A240A346A604A720AB08AC02AF40B104B504B604C055C27FC46CCA07CC6CCE05D005D208D61F9D
:40050000DE50E002E601EA40030809010A020D040E0110011310140417041B401F032108272029102C042D2033023404357C36033701382839203E143F1052035302580460
:40054000590E5B045C195F0183018D039502A503B503B920BF10C002C604C9FFCA07CBFFCC40CD20CEF0CF05D008D804D904DA04DD02DF01E040E1A8E240E3200080011026
:400580000560088109A00EA01040114014021D441F102004241025202640270828012B642C412D102E042F45300231A0320435403629388039103B013C903E023F8040041C
:4005C0004B0150806E206F027D0880088A408D0491409204939A972098809A029F08A040A229A304A610A702AA40AB04AF10B040B110B324B480B548B704C0C3C23BC48988
:40060000CAFFCCFFCEBDD004DE40E220E440E8D0EC20580459045F018102850889208B108D808F40910495019B019D109F20A302A540A780AA02AB04AE01AF08B002B5FF6B
:40064000B601BF10D602D739D804D904DB0CDF01018805A0072008800B880E010F08132814A0160217181E011F41262028A02B042DA82F4534803609372439203B8A3D1002
:400680003E465E2067206D106E466F10760277047F0289108E018F01C0E5C2CBC4F6CAF7CCF0CEFFD620D840DE10E2D023013701580459045C115F018203880289038A01E9
:4006C0008D03900292019303940399029B019C039D03A003A803A903AD01AF02B102B202B401B501D804D904DC11DF0100D0010203010410052309880A400D880E401120EF
:400700001204160417011D101E102180228024082502284129202C012D102E40318135213680384039103A043C803D208004834085028D108E109010911092409840990192
:400740009D20A040A118A340A680B20CB501C05BC2BDC452CA3DCCB9CE3EE004E240E610E810EA01EC20EE08580459045C115F0180048608961098089B019E029F02A2041C
:40078000A601A802AC01B01FB101B302B802BE01D804D904DC11DF010050010402C00410058109900A5C0D080E040F4010501111120A130416401840190120802108220A6E
:4007C0002340280129212C012D902E403010318032063521368039103A403C803D20860290109105925893049D01A180A340A440A508A680AB0AB640B740C0DFC27FC41FBD
:40080000CA3DCCBFCE3CE002EA04EC015401580459045B0C5C115F018011820E838085148749884089018B268C118E069040951F960C980C9A139C209E03A208A50AA75137
:40084000A840A91FAF80B040B180B230B318B40FB507B760B808BA20BF41C064C103C205C401C7CEC830C9FFCAFFCBFFCC62CDA0CEF0CF41D00CD804D904DA04DC22DD0286
:40088000DF01E640E702E910EA30EB10ED10EE10EF120020012203010508060207080AA80B010E0410881620174218801A68200121142384282029602E042F4030083304E5
:4008C00035083742380239283E234001410842404580478048044950500152085C407F0286048C408E049301962C978099029A029B439C109D099E209F08A080A204A30275
:40090000A404A580A688AB50B640B740C0EBC24FC4BACACECCD2CEA7D00BD20CD610DE10E810EC40004104F30518060C08FF09080F0312F3140F153F16F018C31B041C1CF9
:400940001D3C1EE31F022008210423402404253C2701280C29272B182C822D1030C0322C3320340F3540361C371F3A283B803F0456025712580459045B045C225D205F0154
:40098000D804D904DC11DF0100040208038005080602074209800A500B040E0710A212401320154016211708180419551A1021802294281029142A402B802D402E063188EA
:4009C000321835083601374038A83E205A0868106A806B0470B473208208882289048B809080910892459304968099089A019B4A9C309D519F04A410A508A680B108B348E8
:400A0000B621C0BEC2CFC4AFCADFCCDECE2ED602E890EA01ECE0EE08131216883110352038083E884320C4F0CC30CEE0D010538057085B205C1063026501801089208B2049
:400A400094089B029D30A720AF10D4E0D660D880E680E8103E10800494089B02A720AF80B309B511CE20E680EE109610A720B302101014207380C40CDC0121015004983021
:400A80009F80C802D4041B082501830887808D0198309F80B101B404C608C801E208E808EA0444029830D004208024089610A720C8605210560257085B20830886108E02D4
:400AC0008F20AA10AF20B040B404D4E0D620E240E680EA80EE10132814801F80340178107C2098309C02C40EC601CC01DE0310406B8073887C80884098809B08AB20AF8059
:400B0000B001B402C408DC01DE04E201E808EC0410071A021C07000F03C010AA20300000700000000701000000000000030007000701070100000000003F3F00B00040804E
:400B4000B000B00000300000000202000200000000000000000F0F0000010000000200000003000000000000000000000000000000000000000000000000000000000000BB
:400B80000000000000000000000000000000000000000000000000000000000000000000000000000000000000000000000000000000000000000000000000000000000035
:400BC00000000000000000000000000000000000000000000000000000000000000000000000000000000000000000000000000000000000000000000000000000000000F5
:400C000000000000000000000000000000000000000000000000000000000000000000000000000000000000000000000000000000000000000000000000000000000000B4
:400C40000000000000000000000000000000000000000000000000000000000000000000000000000000000000000000000000000000000000000000000000000000000074
:0200000490006A
:0400000000004005B7
:0200000490105A
:04000000BC90ACAF55
:0200000490303A
:02000000DF0D12
:0200000490402A
:4000000000000000000000000000000000000000000000000000000000000000000000000000000000000000000000000000000000000000000000000000000000000000C0
:400040000000000000000000000000000000000000000000000000000000000000000000000000000000000000000000000000000000000000000000000000000000000080
:400080000000000000000000000000000000000000000000000000000000000000000000000000000000000000000000000000000000000000000000000000000000000040
:4000C0000000000000000000000000000000000000000000000000000000000000000000000000000000000000000000000000000000000000000000000000000000000000
:0200000490501A
:0C00000000012E16106900012E25EF767D
:00000001FF